{
  "contracts/newflex.sol": {
    "StakingContract": {
      "abi": [
        {
          "inputs": [
            {
              "internalType": "uint16",
              "name": "_apy",
              "type": "uint16"
            }
          ],
          "stateMutability": "nonpayable",
          "type": "constructor"
        },
        {
          "anonymous": false,
          "inputs": [
            {
              "indexed": false,
              "internalType": "uint8",
              "name": "version",
              "type": "uint8"
            }
          ],
          "name": "Initialized",
          "type": "event"
        },
        {
          "anonymous": false,
          "inputs": [
            {
              "indexed": true,
              "internalType": "address",
              "name": "previousOwner",
              "type": "address"
            },
            {
              "indexed": true,
              "internalType": "address",
              "name": "newOwner",
              "type": "address"
            }
          ],
          "name": "OwnershipTransferred",
          "type": "event"
        },
        {
          "anonymous": false,
          "inputs": [
            {
              "indexed": true,
              "internalType": "address",
              "name": "user",
              "type": "address"
            },
            {
              "indexed": false,
              "internalType": "uint256",
              "name": "totalReward",
              "type": "uint256"
            },
            {
              "indexed": false,
              "internalType": "uint32",
              "name": "timeOfClaim",
              "type": "uint32"
            }
          ],
          "name": "RewardClaimed",
          "type": "event"
        },
        {
          "anonymous": false,
          "inputs": [
            {
              "indexed": true,
              "internalType": "address",
              "name": "user",
              "type": "address"
            },
            {
              "indexed": false,
              "internalType": "uint256",
              "name": "amount",
              "type": "uint256"
            },
            {
              "indexed": false,
              "internalType": "uint32",
              "name": "stakeTime",
              "type": "uint32"
            }
          ],
          "name": "Staked",
          "type": "event"
        },
        {
          "anonymous": false,
          "inputs": [
            {
              "indexed": true,
              "internalType": "address",
              "name": "user",
              "type": "address"
            },
            {
              "indexed": false,
              "internalType": "uint256",
              "name": "amount",
              "type": "uint256"
            },
            {
              "indexed": false,
              "internalType": "uint32",
              "name": "unstakeTime",
              "type": "uint32"
            }
          ],
          "name": "Unstaked",
          "type": "event"
        },
        {
          "inputs": [],
          "name": "apy",
          "outputs": [
            {
              "internalType": "uint16",
              "name": "",
              "type": "uint16"
            }
          ],
          "stateMutability": "view",
          "type": "function"
        },
        {
          "inputs": [
            {
              "internalType": "uint256",
              "name": "_rewardAmount",
              "type": "uint256"
            }
          ],
          "name": "claimRewards",
          "outputs": [],
          "stateMutability": "nonpayable",
          "type": "function"
        },
        {
          "inputs": [],
          "name": "getUserRewards",
          "outputs": [
            {
              "internalType": "uint256",
              "name": "",
              "type": "uint256"
            }
          ],
          "stateMutability": "view",
          "type": "function"
        },
        {
          "inputs": [],
          "name": "getUserStake",
          "outputs": [
            {
              "internalType": "uint256",
              "name": "amount",
              "type": "uint256"
            },
            {
              "internalType": "uint32",
              "name": "startTime",
              "type": "uint32"
            }
          ],
          "stateMutability": "view",
          "type": "function"
        },
        {
          "inputs": [
            {
              "internalType": "uint256",
              "name": "amount",
              "type": "uint256"
            },
            {
              "internalType": "address",
              "name": "newAddress",
              "type": "address"
            }
          ],
          "name": "migration",
          "outputs": [],
          "stateMutability": "nonpayable",
          "type": "function"
        },
        {
          "inputs": [],
          "name": "owner",
          "outputs": [
            {
              "internalType": "address",
              "name": "",
              "type": "address"
            }
          ],
          "stateMutability": "view",
          "type": "function"
        },
        {
          "inputs": [],
          "name": "pause",
          "outputs": [
            {
              "internalType": "bool",
              "name": "",
              "type": "bool"
            }
          ],
          "stateMutability": "view",
          "type": "function"
        },
        {
          "inputs": [],
          "name": "renounceOwnership",
          "outputs": [],
          "stateMutability": "nonpayable",
          "type": "function"
        },
        {
          "inputs": [
            {
              "internalType": "uint256",
              "name": "_amount",
              "type": "uint256"
            }
          ],
          "name": "restake",
          "outputs": [],
          "stateMutability": "nonpayable",
          "type": "function"
        },
        {
          "inputs": [
            {
              "internalType": "uint16",
              "name": "_newAPY",
              "type": "uint16"
            }
          ],
          "name": "setAPY",
          "outputs": [],
          "stateMutability": "nonpayable",
          "type": "function"
        },
        {
          "inputs": [],
          "name": "stake",
          "outputs": [],
          "stateMutability": "payable",
          "type": "function"
        },
        {
          "inputs": [
            {
              "internalType": "address",
              "name": "",
              "type": "address"
            }
          ],
          "name": "stakes",
          "outputs": [
            {
              "internalType": "uint256",
              "name": "amount",
              "type": "uint256"
            },
            {
              "internalType": "uint32",
              "name": "startTime",
              "type": "uint32"
            },
            {
              "internalType": "uint256",
              "name": "rewards",
              "type": "uint256"
            }
          ],
          "stateMutability": "view",
          "type": "function"
        },
        {
          "inputs": [
            {
              "internalType": "address",
              "name": "newOwner",
              "type": "address"
            }
          ],
          "name": "transferOwnership",
          "outputs": [],
          "stateMutability": "nonpayable",
          "type": "function"
        },
        {
          "inputs": [
            {
              "internalType": "uint256",
              "name": "_amount",
              "type": "uint256"
            }
          ],
          "name": "unstake",
          "outputs": [],
          "stateMutability": "nonpayable",
          "type": "function"
        },
        {
          "inputs": [
            {
              "internalType": "bool",
              "name": "_pause",
              "type": "bool"
            }
          ],
          "name": "updateStakingPause",
          "outputs": [],
          "stateMutability": "nonpayable",
          "type": "function"
        },
        {
          "stateMutability": "payable",
          "type": "receive"
        }
      ],
      "userdoc": {},
      "devdoc": {},
      "evm": {
        "bytecode": {
          "object": "608060405234801561001057600080fd5b506040516110eb3803806110eb83398101604081905261002f916100b1565b61003833610061565b600180556002805461ffff90921663010000000264ffff000000199092169190911790556100dc565b600080546001600160a01b038381166001600160a01b0319831681178455604051919092169283917f8be0079c531659141344cd1fd0a4f28419497f9722a3daafe3b4186f6b6457e09190a35050565b6000602082840312156100c357600080fd5b815161ffff811681146100d557600080fd5b9392505050565b611000806100eb6000396000f3fe6080604052600436106100ec5760003560e01c8063715018a61161008a578063bce1b52011610059578063bce1b520146102cf578063c0d18502146102ef578063df2982de14610312578063f2fde38b1461033257600080fd5b8063715018a6146102425780638456cb59146102575780638c6f3349146102875780638da5cb5b146102a757600080fd5b806324b3f698116100c657806324b3f698146101c55780632e17de78146101e55780633a4b66f1146102055780633bcfc4b81461020d57600080fd5b80630962ef79146100f857806316934fc41461011a57806316f9c8fd1461018157600080fd5b366100f357005b600080fd5b34801561010457600080fd5b50610118610113366004610dc0565b610352565b005b34801561012657600080fd5b5061015c610135366004610df5565b600360205260009081526040902080546001820154600290920154909163ffffffff169083565b6040805193845263ffffffff9092166020840152908201526060015b60405180910390f35b34801561018d57600080fd5b50336000908152600360205260409020805460019091015463ffffffff166040805192835263ffffffff909116602083015201610178565b3480156101d157600080fd5b506101186101e0366004610e10565b610551565b3480156101f157600080fd5b50610118610200366004610dc0565b61057b565b6101186107a6565b34801561021957600080fd5b5060025461022f906301000000900461ffff1681565b60405161ffff9091168152602001610178565b34801561024e57600080fd5b506101186108ff565b34801561026357600080fd5b506002546102779062010000900460ff1681565b6040519015158152602001610178565b34801561029357600080fd5b506101186102a2366004610e34565b610913565b3480156102b357600080fd5b506000546040516001600160a01b039091168152602001610178565b3480156102db57600080fd5b506101186102ea366004610dc0565b6109c4565b3480156102fb57600080fd5b50610304610b75565b604051908152602001610178565b34801561031e57600080fd5b5061011861032d366004610e60565b610ba5565b34801561033e57600080fd5b5061011861034d366004610df5565b610bc9565b61035a610c3f565b3360008181526003602052604090206103989061037690610c98565b6001600160a01b03831660009081526003602052604090206002015490610cf2565b6001600160a01b038216600090815260036020526040902060020181905582111561040a5760405162461bcd60e51b815260206004820152601d60248201527f496e73756666696369656e74207265776172647320746f20636c61696d00000060448201526064015b60405180910390fd5b6001600160a01b0381166000908152600360205260409020600201546104309083610cfe565b6001600160a01b03821660009081526003602052604090206002810191909155600101805463ffffffff19164263ffffffff16179055478211156104865760405162461bcd60e51b815260040161040190610e82565b6000816001600160a01b03168360405160006040518083038185875af1925050503d80600081146104d3576040519150601f19603f3d011682016040523d82523d6000602084013e6104d8565b606091505b50509050806104f95760405162461bcd60e51b815260040161040190610eb9565b6040805184815263ffffffff421660208201526001600160a01b038416917f355fbc055b3157df1b42132d534ed73fa38144c578552c273cff1ccf2bf10a1e91015b60405180910390a2505061054e60018055565b50565b610559610d0a565b6002805461ffff90921663010000000264ffff00000019909216919091179055565b610583610c3f565b60025462010000900460ff16156105ac5760405162461bcd60e51b815260040161040190610f0c565b3360008181526003602052604090205482111561060b5760405162461bcd60e51b815260206004820152601a60248201527f496e73756666696369656e74207374616b656420616d6f756e740000000000006044820152606401610401565b6001600160a01b038116600090815260036020526040812061062c90610c98565b6001600160a01b038316600090815260036020526040812054919250906106539085610cfe565b6001600160a01b038416600090815260036020526040902081815560018101805463ffffffff19164263ffffffff908116919091179091556002909101549192506106a191908490610cf216565b6001600160a01b038416600090815260036020526040902060020155478411156106dd5760405162461bcd60e51b815260040161040190610e82565b6000836001600160a01b03168560405160006040518083038185875af1925050503d806000811461072a576040519150601f19603f3d011682016040523d82523d6000602084013e61072f565b606091505b50509050806107505760405162461bcd60e51b815260040161040190610eb9565b6040805186815263ffffffff421660208201526001600160a01b038616917f72b9fb9c9cea84f74073db9855aad69f78ddaf542c4caf5897a2af67d8e2970c910160405180910390a25050505061054e60018055565b600034116107f65760405162461bcd60e51b815260206004820152601d60248201527f416d6f756e74206d7573742062652067726561746572207468616e20300000006044820152606401610401565b60025462010000900460ff161561081f5760405162461bcd60e51b815260040161040190610f0c565b33600081815260036020526040812061083790610c98565b6001600160a01b03831660009081526003602052604090205490915061085d9034610cf2565b6001600160a01b0383166000908152600360205260409020908155600201546108869082610cf2565b6001600160a01b03831660008181526003602090815260409182902060028101949094556001909301805463ffffffff19164263ffffffff1690811790915581513481529384015290917f1186a0fd4b6c8a1f60c379695fa5433d9528920b68d49c541a722a287e5de578910160405180910390a25050565b610907610d0a565b6109116000610d64565b565b61091b610c3f565b610923610d0a565b814710156109435760405162461bcd60e51b815260040161040190610e82565b6000816001600160a01b03168360405160006040518083038185875af1925050503d8060008114610990576040519150601f19603f3d011682016040523d82523d6000602084013e610995565b606091505b50509050806109b65760405162461bcd60e51b815260040161040190610eb9565b506109c060018055565b5050565b6109cc610c3f565b3360008181526003602052604090206109e89061037690610c98565b6001600160a01b0382166000908152600360205260409020600201819055821115610a555760405162461bcd60e51b815260206004820152601f60248201527f496e73756666696369656e74207265776172647320746f2072657374616b65006044820152606401610401565b6001600160a01b038116600090815260036020526040812054610a789084610cf2565b6001600160a01b038316600090815260036020526040902081815560018101805463ffffffff19164263ffffffff90811691909117909155600290910154919250610ac691908590610cfe16565b6001600160a01b038316600081815260036020526040908190206002019290925590517f355fbc055b3157df1b42132d534ed73fa38144c578552c273cff1ccf2bf10a1e90610b27908690429091825263ffffffff16602082015260400190565b60405180910390a26040805184815263ffffffff421660208201526001600160a01b038416917f1186a0fd4b6c8a1f60c379695fa5433d9528920b68d49c541a722a287e5de578910161053b565b33600090815260036020526040812060028101548291610b9f9190610b9990610c98565b90610cf2565b92915050565b610bad610d0a565b60028054911515620100000262ff000019909216919091179055565b610bd1610d0a565b6001600160a01b038116610c365760405162461bcd60e51b815260206004820152602660248201527f4f776e61626c653a206e6577206f776e657220697320746865207a65726f206160448201526564647265737360d01b6064820152608401610401565b61054e81610d64565b600260015403610c915760405162461bcd60e51b815260206004820152601f60248201527f5265656e7472616e637947756172643a207265656e7472616e742063616c6c006044820152606401610401565b6002600155565b60018101546000908190610cb29063ffffffff1642610f6b565b600254845491925064496cebb80091610ce1918491610cdb916301000000900461ffff16610db4565b90610db4565b610ceb9190610f7e565b9392505050565b6000610ceb8284610fa0565b6000610ceb8284610f6b565b6000546001600160a01b031633146109115760405162461bcd60e51b815260206004820181905260248201527f4f776e61626c653a2063616c6c6572206973206e6f7420746865206f776e65726044820152606401610401565b600080546001600160a01b038381166001600160a01b0319831681178455604051919092169283917f8be0079c531659141344cd1fd0a4f28419497f9722a3daafe3b4186f6b6457e09190a35050565b6000610ceb8284610fb3565b600060208284031215610dd257600080fd5b5035919050565b80356001600160a01b0381168114610df057600080fd5b919050565b600060208284031215610e0757600080fd5b610ceb82610dd9565b600060208284031215610e2257600080fd5b813561ffff81168114610ceb57600080fd5b60008060408385031215610e4757600080fd5b82359150610e5760208401610dd9565b90509250929050565b600060208284031215610e7257600080fd5b81358015158114610ceb57600080fd5b6020808252601d908201527f436f6e747261637420696e73756666696369656e742062616c616e6365000000604082015260600190565b60208082526033908201527f556e61626c6520746f2073656e642076616c7565206f7220726563697069656e6040820152721d081b585e481a185d99481c995d995c9d1959606a1b606082015260800190565b60208082526029908201527f506c65617365207761697420756e74696c20746865207374616b696e67206973604082015268081d5b9c185d5cd95960ba1b606082015260800190565b634e487b7160e01b600052601160045260246000fd5b81810381811115610b9f57610b9f610f55565b600082610f9b57634e487b7160e01b600052601260045260246000fd5b500490565b80820180821115610b9f57610b9f610f55565b8082028115828204841417610b9f57610b9f610f5556fea2646970667358221220be9fb9b0f5cf9bff428f112ae76773b6bc4cb93e93855f37911c9d983c830b8a64736f6c63430008130033",
          "opcodes": "PUSH1 0x80 PUSH1 0x40 MSTORE CALLVALUE DUP1 ISZERO PUSH2 0x10 JUMPI PUSH1 0x0 DUP1 REVERT JUMPDEST POP PUSH1 0x40 MLOAD PUSH2 0x10EB CODESIZE SUB DUP1 PUSH2 0x10EB DUP4 CODECOPY DUP2 ADD PUSH1 0x40 DUP2 SWAP1 MSTORE PUSH2 0x2F SWAP2 PUSH2 0xB1 JUMP JUMPDEST PUSH2 0x38 CALLER PUSH2 0x61 JUMP JUMPDEST PUSH1 0x1 DUP1 SSTORE PUSH1 0x2 DUP1 SLOAD PUSH2 0xFFFF SWAP1 SWAP3 AND PUSH4 0x1000000 MUL PUSH5 0xFFFF000000 NOT SWAP1 SWAP3 AND SWAP2 SWAP1 SWAP2 OR SWAP1 SSTORE PUSH2 0xDC JUMP JUMPDEST PUSH1 0x0 DUP1 SLOAD PUSH1 0x1 PUSH1 0x1 PUSH1 0xA0 SHL SUB DUP4 DUP2 AND PUSH1 0x1 PUSH1 0x1 PUSH1 0xA0 SHL SUB NOT DUP4 AND DUP2 OR DUP5 SSTORE PUSH1 0x40 MLOAD SWAP2 SWAP1 SWAP3 AND SWAP3 DUP4 SWAP2 PUSH32 0x8BE0079C531659141344CD1FD0A4F28419497F9722A3DAAFE3B4186F6B6457E0 SWAP2 SWAP1 LOG3 POP POP JUMP JUMPDEST PUSH1 0x0 PUSH1 0x20 DUP3 DUP5 SUB SLT ISZERO PUSH2 0xC3 JUMPI PUSH1 0x0 DUP1 REVERT JUMPDEST DUP2 MLOAD PUSH2 0xFFFF DUP2 AND DUP2 EQ PUSH2 0xD5 JUMPI PUSH1 0x0 DUP1 REVERT JUMPDEST SWAP4 SWAP3 POP POP POP JUMP JUMPDEST PUSH2 0x1000 DUP1 PUSH2 0xEB PUSH1 0x0 CODECOPY PUSH1 0x0 RETURN INVALID PUSH1 0x80 PUSH1 0x40 MSTORE PUSH1 0x4 CALLDATASIZE LT PUSH2 0xEC JUMPI PUSH1 0x0 CALLDATALOAD PUSH1 0xE0 SHR DUP1 PUSH4 0x715018A6 GT PUSH2 0x8A JUMPI DUP1 PUSH4 0xBCE1B520 GT PUSH2 0x59 JUMPI DUP1 PUSH4 0xBCE1B520 EQ PUSH2 0x2CF JUMPI DUP1 PUSH4 0xC0D18502 EQ PUSH2 0x2EF JUMPI DUP1 PUSH4 0xDF2982DE EQ PUSH2 0x312 JUMPI DUP1 PUSH4 0xF2FDE38B EQ PUSH2 0x332 JUMPI PUSH1 0x0 DUP1 REVERT JUMPDEST DUP1 PUSH4 0x715018A6 EQ PUSH2 0x242 JUMPI DUP1 PUSH4 0x8456CB59 EQ PUSH2 0x257 JUMPI DUP1 PUSH4 0x8C6F3349 EQ PUSH2 0x287 JUMPI DUP1 PUSH4 0x8DA5CB5B EQ PUSH2 0x2A7 JUMPI PUSH1 0x0 DUP1 REVERT JUMPDEST DUP1 PUSH4 0x24B3F698 GT PUSH2 0xC6 JUMPI DUP1 PUSH4 0x24B3F698 EQ PUSH2 0x1C5 JUMPI DUP1 PUSH4 0x2E17DE78 EQ PUSH2 0x1E5 JUMPI DUP1 PUSH4 0x3A4B66F1 EQ PUSH2 0x205 JUMPI DUP1 PUSH4 0x3BCFC4B8 EQ PUSH2 0x20D JUMPI PUSH1 0x0 DUP1 REVERT JUMPDEST DUP1 PUSH4 0x962EF79 EQ PUSH2 0xF8 JUMPI DUP1 PUSH4 0x16934FC4 EQ PUSH2 0x11A JUMPI DUP1 PUSH4 0x16F9C8FD EQ PUSH2 0x181 JUMPI PUSH1 0x0 DUP1 REVERT JUMPDEST CALLDATASIZE PUSH2 0xF3 JUMPI STOP JUMPDEST PUSH1 0x0 DUP1 REVERT JUMPDEST CALLVALUE DUP1 ISZERO PUSH2 0x104 JUMPI PUSH1 0x0 DUP1 REVERT JUMPDEST POP PUSH2 0x118 PUSH2 0x113 CALLDATASIZE PUSH1 0x4 PUSH2 0xDC0 JUMP JUMPDEST PUSH2 0x352 JUMP JUMPDEST STOP JUMPDEST CALLVALUE DUP1 ISZERO PUSH2 0x126 JUMPI PUSH1 0x0 DUP1 REVERT JUMPDEST POP PUSH2 0x15C PUSH2 0x135 CALLDATASIZE PUSH1 0x4 PUSH2 0xDF5 JUMP JUMPDEST PUSH1 0x3 PUSH1 0x20 MSTORE PUSH1 0x0 SWAP1 DUP2 MSTORE PUSH1 0x40 SWAP1 KECCAK256 DUP1 SLOAD PUSH1 0x1 DUP3 ADD SLOAD PUSH1 0x2 SWAP1 SWAP3 ADD SLOAD SWAP1 SWAP2 PUSH4 0xFFFFFFFF AND SWAP1 DUP4 JUMP JUMPDEST PUSH1 0x40 DUP1 MLOAD SWAP4 DUP5 MSTORE PUSH4 0xFFFFFFFF SWAP1 SWAP3 AND PUSH1 0x20 DUP5 ADD MSTORE SWAP1 DUP3 ADD MSTORE PUSH1 0x60 ADD JUMPDEST PUSH1 0x40 MLOAD DUP1 SWAP2 SUB SWAP1 RETURN JUMPDEST CALLVALUE DUP1 ISZERO PUSH2 0x18D JUMPI PUSH1 0x0 DUP1 REVERT JUMPDEST POP CALLER PUSH1 0x0 SWAP1 DUP2 MSTORE PUSH1 0x3 PUSH1 0x20 MSTORE PUSH1 0x40 SWAP1 KECCAK256 DUP1 SLOAD PUSH1 0x1 SWAP1 SWAP2 ADD SLOAD PUSH4 0xFFFFFFFF AND PUSH1 0x40 DUP1 MLOAD SWAP3 DUP4 MSTORE PUSH4 0xFFFFFFFF SWAP1 SWAP2 AND PUSH1 0x20 DUP4 ADD MSTORE ADD PUSH2 0x178 JUMP JUMPDEST CALLVALUE DUP1 ISZERO PUSH2 0x1D1 JUMPI PUSH1 0x0 DUP1 REVERT JUMPDEST POP PUSH2 0x118 PUSH2 0x1E0 CALLDATASIZE PUSH1 0x4 PUSH2 0xE10 JUMP JUMPDEST PUSH2 0x551 JUMP JUMPDEST CALLVALUE DUP1 ISZERO PUSH2 0x1F1 JUMPI PUSH1 0x0 DUP1 REVERT JUMPDEST POP PUSH2 0x118 PUSH2 0x200 CALLDATASIZE PUSH1 0x4 PUSH2 0xDC0 JUMP JUMPDEST PUSH2 0x57B JUMP JUMPDEST PUSH2 0x118 PUSH2 0x7A6 JUMP JUMPDEST CALLVALUE DUP1 ISZERO PUSH2 0x219 JUMPI PUSH1 0x0 DUP1 REVERT JUMPDEST POP PUSH1 0x2 SLOAD PUSH2 0x22F SWAP1 PUSH4 0x1000000 SWAP1 DIV PUSH2 0xFFFF AND DUP2 JUMP JUMPDEST PUSH1 0x40 MLOAD PUSH2 0xFFFF SWAP1 SWAP2 AND DUP2 MSTORE PUSH1 0x20 ADD PUSH2 0x178 JUMP JUMPDEST CALLVALUE DUP1 ISZERO PUSH2 0x24E JUMPI PUSH1 0x0 DUP1 REVERT JUMPDEST POP PUSH2 0x118 PUSH2 0x8FF JUMP JUMPDEST CALLVALUE DUP1 ISZERO PUSH2 0x263 JUMPI PUSH1 0x0 DUP1 REVERT JUMPDEST POP PUSH1 0x2 SLOAD PUSH2 0x277 SWAP1 PUSH3 0x10000 SWAP1 DIV PUSH1 0xFF AND DUP2 JUMP JUMPDEST PUSH1 0x40 MLOAD SWAP1 ISZERO ISZERO DUP2 MSTORE PUSH1 0x20 ADD PUSH2 0x178 JUMP JUMPDEST CALLVALUE DUP1 ISZERO PUSH2 0x293 JUMPI PUSH1 0x0 DUP1 REVERT JUMPDEST POP PUSH2 0x118 PUSH2 0x2A2 CALLDATASIZE PUSH1 0x4 PUSH2 0xE34 JUMP JUMPDEST PUSH2 0x913 JUMP JUMPDEST CALLVALUE DUP1 ISZERO PUSH2 0x2B3 JUMPI PUSH1 0x0 DUP1 REVERT JUMPDEST POP PUSH1 0x0 SLOAD PUSH1 0x40 MLOAD PUSH1 0x1 PUSH1 0x1 PUSH1 0xA0 SHL SUB SWAP1 SWAP2 AND DUP2 MSTORE PUSH1 0x20 ADD PUSH2 0x178 JUMP JUMPDEST CALLVALUE DUP1 ISZERO PUSH2 0x2DB JUMPI PUSH1 0x0 DUP1 REVERT JUMPDEST POP PUSH2 0x118 PUSH2 0x2EA CALLDATASIZE PUSH1 0x4 PUSH2 0xDC0 JUMP JUMPDEST PUSH2 0x9C4 JUMP JUMPDEST CALLVALUE DUP1 ISZERO PUSH2 0x2FB JUMPI PUSH1 0x0 DUP1 REVERT JUMPDEST POP PUSH2 0x304 PUSH2 0xB75 JUMP JUMPDEST PUSH1 0x40 MLOAD SWAP1 DUP2 MSTORE PUSH1 0x20 ADD PUSH2 0x178 JUMP JUMPDEST CALLVALUE DUP1 ISZERO PUSH2 0x31E JUMPI PUSH1 0x0 DUP1 REVERT JUMPDEST POP PUSH2 0x118 PUSH2 0x32D CALLDATASIZE PUSH1 0x4 PUSH2 0xE60 JUMP JUMPDEST PUSH2 0xBA5 JUMP JUMPDEST CALLVALUE DUP1 ISZERO PUSH2 0x33E JUMPI PUSH1 0x0 DUP1 REVERT JUMPDEST POP PUSH2 0x118 PUSH2 0x34D CALLDATASIZE PUSH1 0x4 PUSH2 0xDF5 JUMP JUMPDEST PUSH2 0xBC9 JUMP JUMPDEST PUSH2 0x35A PUSH2 0xC3F JUMP JUMPDEST CALLER PUSH1 0x0 DUP2 DUP2 MSTORE PUSH1 0x3 PUSH1 0x20 MSTORE PUSH1 0x40 SWAP1 KECCAK256 PUSH2 0x398 SWAP1 PUSH2 0x376 SWAP1 PUSH2 0xC98 JUMP JUMPDEST PUSH1 0x1 PUSH1 0x1 PUSH1 0xA0 SHL SUB DUP4 AND PUSH1 0x0 SWAP1 DUP2 MSTORE PUSH1 0x3 PUSH1 0x20 MSTORE PUSH1 0x40 SWAP1 KECCAK256 PUSH1 0x2 ADD SLOAD SWAP1 PUSH2 0xCF2 JUMP JUMPDEST PUSH1 0x1 PUSH1 0x1 PUSH1 0xA0 SHL SUB DUP3 AND PUSH1 0x0 SWAP1 DUP2 MSTORE PUSH1 0x3 PUSH1 0x20 MSTORE PUSH1 0x40 SWAP1 KECCAK256 PUSH1 0x2 ADD DUP2 SWAP1 SSTORE DUP3 GT ISZERO PUSH2 0x40A JUMPI PUSH1 0x40 MLOAD PUSH3 0x461BCD PUSH1 0xE5 SHL DUP2 MSTORE PUSH1 0x20 PUSH1 0x4 DUP3 ADD MSTORE PUSH1 0x1D PUSH1 0x24 DUP3 ADD MSTORE PUSH32 0x496E73756666696369656E74207265776172647320746F20636C61696D000000 PUSH1 0x44 DUP3 ADD MSTORE PUSH1 0x64 ADD JUMPDEST PUSH1 0x40 MLOAD DUP1 SWAP2 SUB SWAP1 REVERT JUMPDEST PUSH1 0x1 PUSH1 0x1 PUSH1 0xA0 SHL SUB DUP2 AND PUSH1 0x0 SWAP1 DUP2 MSTORE PUSH1 0x3 PUSH1 0x20 MSTORE PUSH1 0x40 SWAP1 KECCAK256 PUSH1 0x2 ADD SLOAD PUSH2 0x430 SWAP1 DUP4 PUSH2 0xCFE JUMP JUMPDEST PUSH1 0x1 PUSH1 0x1 PUSH1 0xA0 SHL SUB DUP3 AND PUSH1 0x0 SWAP1 DUP2 MSTORE PUSH1 0x3 PUSH1 0x20 MSTORE PUSH1 0x40 SWAP1 KECCAK256 PUSH1 0x2 DUP2 ADD SWAP2 SWAP1 SWAP2 SSTORE PUSH1 0x1 ADD DUP1 SLOAD PUSH4 0xFFFFFFFF NOT AND TIMESTAMP PUSH4 0xFFFFFFFF AND OR SWAP1 SSTORE SELFBALANCE DUP3 GT ISZERO PUSH2 0x486 JUMPI PUSH1 0x40 MLOAD PUSH3 0x461BCD PUSH1 0xE5 SHL DUP2 MSTORE PUSH1 0x4 ADD PUSH2 0x401 SWAP1 PUSH2 0xE82 JUMP JUMPDEST PUSH1 0x0 DUP2 PUSH1 0x1 PUSH1 0x1 PUSH1 0xA0 SHL SUB AND DUP4 PUSH1 0x40 MLOAD PUSH1 0x0 PUSH1 0x40 MLOAD DUP1 DUP4 SUB DUP2 DUP6 DUP8 GAS CALL SWAP3 POP POP POP RETURNDATASIZE DUP1 PUSH1 0x0 DUP2 EQ PUSH2 0x4D3 JUMPI PUSH1 0x40 MLOAD SWAP2 POP PUSH1 0x1F NOT PUSH1 0x3F RETURNDATASIZE ADD AND DUP3 ADD PUSH1 0x40 MSTORE RETURNDATASIZE DUP3 MSTORE RETURNDATASIZE PUSH1 0x0 PUSH1 0x20 DUP5 ADD RETURNDATACOPY PUSH2 0x4D8 JUMP JUMPDEST PUSH1 0x60 SWAP2 POP JUMPDEST POP POP SWAP1 POP DUP1 PUSH2 0x4F9 JUMPI PUSH1 0x40 MLOAD PUSH3 0x461BCD PUSH1 0xE5 SHL DUP2 MSTORE PUSH1 0x4 ADD PUSH2 0x401 SWAP1 PUSH2 0xEB9 JUMP JUMPDEST PUSH1 0x40 DUP1 MLOAD DUP5 DUP2 MSTORE PUSH4 0xFFFFFFFF TIMESTAMP AND PUSH1 0x20 DUP3 ADD MSTORE PUSH1 0x1 PUSH1 0x1 PUSH1 0xA0 SHL SUB DUP5 AND SWAP2 PUSH32 0x355FBC055B3157DF1B42132D534ED73FA38144C578552C273CFF1CCF2BF10A1E SWAP2 ADD JUMPDEST PUSH1 0x40 MLOAD DUP1 SWAP2 SUB SWAP1 LOG2 POP POP PUSH2 0x54E PUSH1 0x1 DUP1 SSTORE JUMP JUMPDEST POP JUMP JUMPDEST PUSH2 0x559 PUSH2 0xD0A JUMP JUMPDEST PUSH1 0x2 DUP1 SLOAD PUSH2 0xFFFF SWAP1 SWAP3 AND PUSH4 0x1000000 MUL PUSH5 0xFFFF000000 NOT SWAP1 SWAP3 AND SWAP2 SWAP1 SWAP2 OR SWAP1 SSTORE JUMP JUMPDEST PUSH2 0x583 PUSH2 0xC3F JUMP JUMPDEST PUSH1 0x2 SLOAD PUSH3 0x10000 SWAP1 DIV PUSH1 0xFF AND ISZERO PUSH2 0x5AC JUMPI PUSH1 0x40 MLOAD PUSH3 0x461BCD PUSH1 0xE5 SHL DUP2 MSTORE PUSH1 0x4 ADD PUSH2 0x401 SWAP1 PUSH2 0xF0C JUMP JUMPDEST CALLER PUSH1 0x0 DUP2 DUP2 MSTORE PUSH1 0x3 PUSH1 0x20 MSTORE PUSH1 0x40 SWAP1 KECCAK256 SLOAD DUP3 GT ISZERO PUSH2 0x60B JUMPI PUSH1 0x40 MLOAD PUSH3 0x461BCD PUSH1 0xE5 SHL DUP2 MSTORE PUSH1 0x20 PUSH1 0x4 DUP3 ADD MSTORE PUSH1 0x1A PUSH1 0x24 DUP3 ADD MSTORE PUSH32 0x496E73756666696369656E74207374616B656420616D6F756E74000000000000 PUSH1 0x44 DUP3 ADD MSTORE PUSH1 0x64 ADD PUSH2 0x401 JUMP JUMPDEST PUSH1 0x1 PUSH1 0x1 PUSH1 0xA0 SHL SUB DUP2 AND PUSH1 0x0 SWAP1 DUP2 MSTORE PUSH1 0x3 PUSH1 0x20 MSTORE PUSH1 0x40 DUP2 KECCAK256 PUSH2 0x62C SWAP1 PUSH2 0xC98 JUMP JUMPDEST PUSH1 0x1 PUSH1 0x1 PUSH1 0xA0 SHL SUB DUP4 AND PUSH1 0x0 SWAP1 DUP2 MSTORE PUSH1 0x3 PUSH1 0x20 MSTORE PUSH1 0x40 DUP2 KECCAK256 SLOAD SWAP2 SWAP3 POP SWAP1 PUSH2 0x653 SWAP1 DUP6 PUSH2 0xCFE JUMP JUMPDEST PUSH1 0x1 PUSH1 0x1 PUSH1 0xA0 SHL SUB DUP5 AND PUSH1 0x0 SWAP1 DUP2 MSTORE PUSH1 0x3 PUSH1 0x20 MSTORE PUSH1 0x40 SWAP1 KECCAK256 DUP2 DUP2 SSTORE PUSH1 0x1 DUP2 ADD DUP1 SLOAD PUSH4 0xFFFFFFFF NOT AND TIMESTAMP PUSH4 0xFFFFFFFF SWAP1 DUP2 AND SWAP2 SWAP1 SWAP2 OR SWAP1 SWAP2 SSTORE PUSH1 0x2 SWAP1 SWAP2 ADD SLOAD SWAP2 SWAP3 POP PUSH2 0x6A1 SWAP2 SWAP1 DUP5 SWAP1 PUSH2 0xCF2 AND JUMP JUMPDEST PUSH1 0x1 PUSH1 0x1 PUSH1 0xA0 SHL SUB DUP5 AND PUSH1 0x0 SWAP1 DUP2 MSTORE PUSH1 0x3 PUSH1 0x20 MSTORE PUSH1 0x40 SWAP1 KECCAK256 PUSH1 0x2 ADD SSTORE SELFBALANCE DUP5 GT ISZERO PUSH2 0x6DD JUMPI PUSH1 0x40 MLOAD PUSH3 0x461BCD PUSH1 0xE5 SHL DUP2 MSTORE PUSH1 0x4 ADD PUSH2 0x401 SWAP1 PUSH2 0xE82 JUMP JUMPDEST PUSH1 0x0 DUP4 PUSH1 0x1 PUSH1 0x1 PUSH1 0xA0 SHL SUB AND DUP6 PUSH1 0x40 MLOAD PUSH1 0x0 PUSH1 0x40 MLOAD DUP1 DUP4 SUB DUP2 DUP6 DUP8 GAS CALL SWAP3 POP POP POP RETURNDATASIZE DUP1 PUSH1 0x0 DUP2 EQ PUSH2 0x72A JUMPI PUSH1 0x40 MLOAD SWAP2 POP PUSH1 0x1F NOT PUSH1 0x3F RETURNDATASIZE ADD AND DUP3 ADD PUSH1 0x40 MSTORE RETURNDATASIZE DUP3 MSTORE RETURNDATASIZE PUSH1 0x0 PUSH1 0x20 DUP5 ADD RETURNDATACOPY PUSH2 0x72F JUMP JUMPDEST PUSH1 0x60 SWAP2 POP JUMPDEST POP POP SWAP1 POP DUP1 PUSH2 0x750 JUMPI PUSH1 0x40 MLOAD PUSH3 0x461BCD PUSH1 0xE5 SHL DUP2 MSTORE PUSH1 0x4 ADD PUSH2 0x401 SWAP1 PUSH2 0xEB9 JUMP JUMPDEST PUSH1 0x40 DUP1 MLOAD DUP7 DUP2 MSTORE PUSH4 0xFFFFFFFF TIMESTAMP AND PUSH1 0x20 DUP3 ADD MSTORE PUSH1 0x1 PUSH1 0x1 PUSH1 0xA0 SHL SUB DUP7 AND SWAP2 PUSH32 0x72B9FB9C9CEA84F74073DB9855AAD69F78DDAF542C4CAF5897A2AF67D8E2970C SWAP2 ADD PUSH1 0x40 MLOAD DUP1 SWAP2 SUB SWAP1 LOG2 POP POP POP POP PUSH2 0x54E PUSH1 0x1 DUP1 SSTORE JUMP JUMPDEST PUSH1 0x0 CALLVALUE GT PUSH2 0x7F6 JUMPI PUSH1 0x40 MLOAD PUSH3 0x461BCD PUSH1 0xE5 SHL DUP2 MSTORE PUSH1 0x20 PUSH1 0x4 DUP3 ADD MSTORE PUSH1 0x1D PUSH1 0x24 DUP3 ADD MSTORE PUSH32 0x416D6F756E74206D7573742062652067726561746572207468616E2030000000 PUSH1 0x44 DUP3 ADD MSTORE PUSH1 0x64 ADD PUSH2 0x401 JUMP JUMPDEST PUSH1 0x2 SLOAD PUSH3 0x10000 SWAP1 DIV PUSH1 0xFF AND ISZERO PUSH2 0x81F JUMPI PUSH1 0x40 MLOAD PUSH3 0x461BCD PUSH1 0xE5 SHL DUP2 MSTORE PUSH1 0x4 ADD PUSH2 0x401 SWAP1 PUSH2 0xF0C JUMP JUMPDEST CALLER PUSH1 0x0 DUP2 DUP2 MSTORE PUSH1 0x3 PUSH1 0x20 MSTORE PUSH1 0x40 DUP2 KECCAK256 PUSH2 0x837 SWAP1 PUSH2 0xC98 JUMP JUMPDEST PUSH1 0x1 PUSH1 0x1 PUSH1 0xA0 SHL SUB DUP4 AND PUSH1 0x0 SWAP1 DUP2 MSTORE PUSH1 0x3 PUSH1 0x20 MSTORE PUSH1 0x40 SWAP1 KECCAK256 SLOAD SWAP1 SWAP2 POP PUSH2 0x85D SWAP1 CALLVALUE PUSH2 0xCF2 JUMP JUMPDEST PUSH1 0x1 PUSH1 0x1 PUSH1 0xA0 SHL SUB DUP4 AND PUSH1 0x0 SWAP1 DUP2 MSTORE PUSH1 0x3 PUSH1 0x20 MSTORE PUSH1 0x40 SWAP1 KECCAK256 SWAP1 DUP2 SSTORE PUSH1 0x2 ADD SLOAD PUSH2 0x886 SWAP1 DUP3 PUSH2 0xCF2 JUMP JUMPDEST PUSH1 0x1 PUSH1 0x1 PUSH1 0xA0 SHL SUB DUP4 AND PUSH1 0x0 DUP2 DUP2 MSTORE PUSH1 0x3 PUSH1 0x20 SWAP1 DUP2 MSTORE PUSH1 0x40 SWAP2 DUP3 SWAP1 KECCAK256 PUSH1 0x2 DUP2 ADD SWAP5 SWAP1 SWAP5 SSTORE PUSH1 0x1 SWAP1 SWAP4 ADD DUP1 SLOAD PUSH4 0xFFFFFFFF NOT AND TIMESTAMP PUSH4 0xFFFFFFFF AND SWAP1 DUP2 OR SWAP1 SWAP2 SSTORE DUP2 MLOAD CALLVALUE DUP2 MSTORE SWAP4 DUP5 ADD MSTORE SWAP1 SWAP2 PUSH32 0x1186A0FD4B6C8A1F60C379695FA5433D9528920B68D49C541A722A287E5DE578 SWAP2 ADD PUSH1 0x40 MLOAD DUP1 SWAP2 SUB SWAP1 LOG2 POP POP JUMP JUMPDEST PUSH2 0x907 PUSH2 0xD0A JUMP JUMPDEST PUSH2 0x911 PUSH1 0x0 PUSH2 0xD64 JUMP JUMPDEST JUMP JUMPDEST PUSH2 0x91B PUSH2 0xC3F JUMP JUMPDEST PUSH2 0x923 PUSH2 0xD0A JUMP JUMPDEST DUP2 SELFBALANCE LT ISZERO PUSH2 0x943 JUMPI PUSH1 0x40 MLOAD PUSH3 0x461BCD PUSH1 0xE5 SHL DUP2 MSTORE PUSH1 0x4 ADD PUSH2 0x401 SWAP1 PUSH2 0xE82 JUMP JUMPDEST PUSH1 0x0 DUP2 PUSH1 0x1 PUSH1 0x1 PUSH1 0xA0 SHL SUB AND DUP4 PUSH1 0x40 MLOAD PUSH1 0x0 PUSH1 0x40 MLOAD DUP1 DUP4 SUB DUP2 DUP6 DUP8 GAS CALL SWAP3 POP POP POP RETURNDATASIZE DUP1 PUSH1 0x0 DUP2 EQ PUSH2 0x990 JUMPI PUSH1 0x40 MLOAD SWAP2 POP PUSH1 0x1F NOT PUSH1 0x3F RETURNDATASIZE ADD AND DUP3 ADD PUSH1 0x40 MSTORE RETURNDATASIZE DUP3 MSTORE RETURNDATASIZE PUSH1 0x0 PUSH1 0x20 DUP5 ADD RETURNDATACOPY PUSH2 0x995 JUMP JUMPDEST PUSH1 0x60 SWAP2 POP JUMPDEST POP POP SWAP1 POP DUP1 PUSH2 0x9B6 JUMPI PUSH1 0x40 MLOAD PUSH3 0x461BCD PUSH1 0xE5 SHL DUP2 MSTORE PUSH1 0x4 ADD PUSH2 0x401 SWAP1 PUSH2 0xEB9 JUMP JUMPDEST POP PUSH2 0x9C0 PUSH1 0x1 DUP1 SSTORE JUMP JUMPDEST POP POP JUMP JUMPDEST PUSH2 0x9CC PUSH2 0xC3F JUMP JUMPDEST CALLER PUSH1 0x0 DUP2 DUP2 MSTORE PUSH1 0x3 PUSH1 0x20 MSTORE PUSH1 0x40 SWAP1 KECCAK256 PUSH2 0x9E8 SWAP1 PUSH2 0x376 SWAP1 PUSH2 0xC98 JUMP JUMPDEST PUSH1 0x1 PUSH1 0x1 PUSH1 0xA0 SHL SUB DUP3 AND PUSH1 0x0 SWAP1 DUP2 MSTORE PUSH1 0x3 PUSH1 0x20 MSTORE PUSH1 0x40 SWAP1 KECCAK256 PUSH1 0x2 ADD DUP2 SWAP1 SSTORE DUP3 GT ISZERO PUSH2 0xA55 JUMPI PUSH1 0x40 MLOAD PUSH3 0x461BCD PUSH1 0xE5 SHL DUP2 MSTORE PUSH1 0x20 PUSH1 0x4 DUP3 ADD MSTORE PUSH1 0x1F PUSH1 0x24 DUP3 ADD MSTORE PUSH32 0x496E73756666696369656E74207265776172647320746F2072657374616B6500 PUSH1 0x44 DUP3 ADD MSTORE PUSH1 0x64 ADD PUSH2 0x401 JUMP JUMPDEST PUSH1 0x1 PUSH1 0x1 PUSH1 0xA0 SHL SUB DUP2 AND PUSH1 0x0 SWAP1 DUP2 MSTORE PUSH1 0x3 PUSH1 0x20 MSTORE PUSH1 0x40 DUP2 KECCAK256 SLOAD PUSH2 0xA78 SWAP1 DUP5 PUSH2 0xCF2 JUMP JUMPDEST PUSH1 0x1 PUSH1 0x1 PUSH1 0xA0 SHL SUB DUP4 AND PUSH1 0x0 SWAP1 DUP2 MSTORE PUSH1 0x3 PUSH1 0x20 MSTORE PUSH1 0x40 SWAP1 KECCAK256 DUP2 DUP2 SSTORE PUSH1 0x1 DUP2 ADD DUP1 SLOAD PUSH4 0xFFFFFFFF NOT AND TIMESTAMP PUSH4 0xFFFFFFFF SWAP1 DUP2 AND SWAP2 SWAP1 SWAP2 OR SWAP1 SWAP2 SSTORE PUSH1 0x2 SWAP1 SWAP2 ADD SLOAD SWAP2 SWAP3 POP PUSH2 0xAC6 SWAP2 SWAP1 DUP6 SWAP1 PUSH2 0xCFE AND JUMP JUMPDEST PUSH1 0x1 PUSH1 0x1 PUSH1 0xA0 SHL SUB DUP4 AND PUSH1 0x0 DUP2 DUP2 MSTORE PUSH1 0x3 PUSH1 0x20 MSTORE PUSH1 0x40 SWAP1 DUP2 SWAP1 KECCAK256 PUSH1 0x2 ADD SWAP3 SWAP1 SWAP3 SSTORE SWAP1 MLOAD PUSH32 0x355FBC055B3157DF1B42132D534ED73FA38144C578552C273CFF1CCF2BF10A1E SWAP1 PUSH2 0xB27 SWAP1 DUP7 SWAP1 TIMESTAMP SWAP1 SWAP2 DUP3 MSTORE PUSH4 0xFFFFFFFF AND PUSH1 0x20 DUP3 ADD MSTORE PUSH1 0x40 ADD SWAP1 JUMP JUMPDEST PUSH1 0x40 MLOAD DUP1 SWAP2 SUB SWAP1 LOG2 PUSH1 0x40 DUP1 MLOAD DUP5 DUP2 MSTORE PUSH4 0xFFFFFFFF TIMESTAMP AND PUSH1 0x20 DUP3 ADD MSTORE PUSH1 0x1 PUSH1 0x1 PUSH1 0xA0 SHL SUB DUP5 AND SWAP2 PUSH32 0x1186A0FD4B6C8A1F60C379695FA5433D9528920B68D49C541A722A287E5DE578 SWAP2 ADD PUSH2 0x53B JUMP JUMPDEST CALLER PUSH1 0x0 SWAP1 DUP2 MSTORE PUSH1 0x3 PUSH1 0x20 MSTORE PUSH1 0x40 DUP2 KECCAK256 PUSH1 0x2 DUP2 ADD SLOAD DUP3 SWAP2 PUSH2 0xB9F SWAP2 SWAP1 PUSH2 0xB99 SWAP1 PUSH2 0xC98 JUMP JUMPDEST SWAP1 PUSH2 0xCF2 JUMP JUMPDEST SWAP3 SWAP2 POP POP JUMP JUMPDEST PUSH2 0xBAD PUSH2 0xD0A JUMP JUMPDEST PUSH1 0x2 DUP1 SLOAD SWAP2 ISZERO ISZERO PUSH3 0x10000 MUL PUSH3 0xFF0000 NOT SWAP1 SWAP3 AND SWAP2 SWAP1 SWAP2 OR SWAP1 SSTORE JUMP JUMPDEST PUSH2 0xBD1 PUSH2 0xD0A JUMP JUMPDEST PUSH1 0x1 PUSH1 0x1 PUSH1 0xA0 SHL SUB DUP2 AND PUSH2 0xC36 JUMPI PUSH1 0x40 MLOAD PUSH3 0x461BCD PUSH1 0xE5 SHL DUP2 MSTORE PUSH1 0x20 PUSH1 0x4 DUP3 ADD MSTORE PUSH1 0x26 PUSH1 0x24 DUP3 ADD MSTORE PUSH32 0x4F776E61626C653A206E6577206F776E657220697320746865207A65726F2061 PUSH1 0x44 DUP3 ADD MSTORE PUSH6 0x646472657373 PUSH1 0xD0 SHL PUSH1 0x64 DUP3 ADD MSTORE PUSH1 0x84 ADD PUSH2 0x401 JUMP JUMPDEST PUSH2 0x54E DUP2 PUSH2 0xD64 JUMP JUMPDEST PUSH1 0x2 PUSH1 0x1 SLOAD SUB PUSH2 0xC91 JUMPI PUSH1 0x40 MLOAD PUSH3 0x461BCD PUSH1 0xE5 SHL DUP2 MSTORE PUSH1 0x20 PUSH1 0x4 DUP3 ADD MSTORE PUSH1 0x1F PUSH1 0x24 DUP3 ADD MSTORE PUSH32 0x5265656E7472616E637947756172643A207265656E7472616E742063616C6C00 PUSH1 0x44 DUP3 ADD MSTORE PUSH1 0x64 ADD PUSH2 0x401 JUMP JUMPDEST PUSH1 0x2 PUSH1 0x1 SSTORE JUMP JUMPDEST PUSH1 0x1 DUP2 ADD SLOAD PUSH1 0x0 SWAP1 DUP2 SWAP1 PUSH2 0xCB2 SWAP1 PUSH4 0xFFFFFFFF AND TIMESTAMP PUSH2 0xF6B JUMP JUMPDEST PUSH1 0x2 SLOAD DUP5 SLOAD SWAP2 SWAP3 POP PUSH5 0x496CEBB800 SWAP2 PUSH2 0xCE1 SWAP2 DUP5 SWAP2 PUSH2 0xCDB SWAP2 PUSH4 0x1000000 SWAP1 DIV PUSH2 0xFFFF AND PUSH2 0xDB4 JUMP JUMPDEST SWAP1 PUSH2 0xDB4 JUMP JUMPDEST PUSH2 0xCEB SWAP2 SWAP1 PUSH2 0xF7E JUMP JUMPDEST SWAP4 SWAP3 POP POP POP JUMP JUMPDEST PUSH1 0x0 PUSH2 0xCEB DUP3 DUP5 PUSH2 0xFA0 JUMP JUMPDEST PUSH1 0x0 PUSH2 0xCEB DUP3 DUP5 PUSH2 0xF6B JUMP JUMPDEST PUSH1 0x0 SLOAD PUSH1 0x1 PUSH1 0x1 PUSH1 0xA0 SHL SUB AND CALLER EQ PUSH2 0x911 JUMPI PUSH1 0x40 MLOAD PUSH3 0x461BCD PUSH1 0xE5 SHL DUP2 MSTORE PUSH1 0x20 PUSH1 0x4 DUP3 ADD DUP2 SWAP1 MSTORE PUSH1 0x24 DUP3 ADD MSTORE PUSH32 0x4F776E61626C653A2063616C6C6572206973206E6F7420746865206F776E6572 PUSH1 0x44 DUP3 ADD MSTORE PUSH1 0x64 ADD PUSH2 0x401 JUMP JUMPDEST PUSH1 0x0 DUP1 SLOAD PUSH1 0x1 PUSH1 0x1 PUSH1 0xA0 SHL SUB DUP4 DUP2 AND PUSH1 0x1 PUSH1 0x1 PUSH1 0xA0 SHL SUB NOT DUP4 AND DUP2 OR DUP5 SSTORE PUSH1 0x40 MLOAD SWAP2 SWAP1 SWAP3 AND SWAP3 DUP4 SWAP2 PUSH32 0x8BE0079C531659141344CD1FD0A4F28419497F9722A3DAAFE3B4186F6B6457E0 SWAP2 SWAP1 LOG3 POP POP JUMP JUMPDEST PUSH1 0x0 PUSH2 0xCEB DUP3 DUP5 PUSH2 0xFB3 JUMP JUMPDEST PUSH1 0x0 PUSH1 0x20 DUP3 DUP5 SUB SLT ISZERO PUSH2 0xDD2 JUMPI PUSH1 0x0 DUP1 REVERT JUMPDEST POP CALLDATALOAD SWAP2 SWAP1 POP JUMP JUMPDEST DUP1 CALLDATALOAD PUSH1 0x1 PUSH1 0x1 PUSH1 0xA0 SHL SUB DUP2 AND DUP2 EQ PUSH2 0xDF0 JUMPI PUSH1 0x0 DUP1 REVERT JUMPDEST SWAP2 SWAP1 POP JUMP JUMPDEST PUSH1 0x0 PUSH1 0x20 DUP3 DUP5 SUB SLT ISZERO PUSH2 0xE07 JUMPI PUSH1 0x0 DUP1 REVERT JUMPDEST PUSH2 0xCEB DUP3 PUSH2 0xDD9 JUMP JUMPDEST PUSH1 0x0 PUSH1 0x20 DUP3 DUP5 SUB SLT ISZERO PUSH2 0xE22 JUMPI PUSH1 0x0 DUP1 REVERT JUMPDEST DUP2 CALLDATALOAD PUSH2 0xFFFF DUP2 AND DUP2 EQ PUSH2 0xCEB JUMPI PUSH1 0x0 DUP1 REVERT JUMPDEST PUSH1 0x0 DUP1 PUSH1 0x40 DUP4 DUP6 SUB SLT ISZERO PUSH2 0xE47 JUMPI PUSH1 0x0 DUP1 REVERT JUMPDEST DUP3 CALLDATALOAD SWAP2 POP PUSH2 0xE57 PUSH1 0x20 DUP5 ADD PUSH2 0xDD9 JUMP JUMPDEST SWAP1 POP SWAP3 POP SWAP3 SWAP1 POP JUMP JUMPDEST PUSH1 0x0 PUSH1 0x20 DUP3 DUP5 SUB SLT ISZERO PUSH2 0xE72 JUMPI PUSH1 0x0 DUP1 REVERT JUMPDEST DUP2 CALLDATALOAD DUP1 ISZERO ISZERO DUP2 EQ PUSH2 0xCEB JUMPI PUSH1 0x0 DUP1 REVERT JUMPDEST PUSH1 0x20 DUP1 DUP3 MSTORE PUSH1 0x1D SWAP1 DUP3 ADD MSTORE PUSH32 0x436F6E747261637420696E73756666696369656E742062616C616E6365000000 PUSH1 0x40 DUP3 ADD MSTORE PUSH1 0x60 ADD SWAP1 JUMP JUMPDEST PUSH1 0x20 DUP1 DUP3 MSTORE PUSH1 0x33 SWAP1 DUP3 ADD MSTORE PUSH32 0x556E61626C6520746F2073656E642076616C7565206F7220726563697069656E PUSH1 0x40 DUP3 ADD MSTORE PUSH19 0x1D081B585E481A185D99481C995D995C9D1959 PUSH1 0x6A SHL PUSH1 0x60 DUP3 ADD MSTORE PUSH1 0x80 ADD SWAP1 JUMP JUMPDEST PUSH1 0x20 DUP1 DUP3 MSTORE PUSH1 0x29 SWAP1 DUP3 ADD MSTORE PUSH32 0x506C65617365207761697420756E74696C20746865207374616B696E67206973 PUSH1 0x40 DUP3 ADD MSTORE PUSH9 0x81D5B9C185D5CD959 PUSH1 0xBA SHL PUSH1 0x60 DUP3 ADD MSTORE PUSH1 0x80 ADD SWAP1 JUMP JUMPDEST PUSH4 0x4E487B71 PUSH1 0xE0 SHL PUSH1 0x0 MSTORE PUSH1 0x11 PUSH1 0x4 MSTORE PUSH1 0x24 PUSH1 0x0 REVERT JUMPDEST DUP2 DUP2 SUB DUP2 DUP2 GT ISZERO PUSH2 0xB9F JUMPI PUSH2 0xB9F PUSH2 0xF55 JUMP JUMPDEST PUSH1 0x0 DUP3 PUSH2 0xF9B JUMPI PUSH4 0x4E487B71 PUSH1 0xE0 SHL PUSH1 0x0 MSTORE PUSH1 0x12 PUSH1 0x4 MSTORE PUSH1 0x24 PUSH1 0x0 REVERT JUMPDEST POP DIV SWAP1 JUMP JUMPDEST DUP1 DUP3 ADD DUP1 DUP3 GT ISZERO PUSH2 0xB9F JUMPI PUSH2 0xB9F PUSH2 0xF55 JUMP JUMPDEST DUP1 DUP3 MUL DUP2 ISZERO DUP3 DUP3 DIV DUP5 EQ OR PUSH2 0xB9F JUMPI PUSH2 0xB9F PUSH2 0xF55 JUMP INVALID LOG2 PUSH5 0x6970667358 0x22 SLT KECCAK256 0xBE SWAP16 0xB9 0xB0 CREATE2 0xCF SWAP12 SELFDESTRUCT TIMESTAMP DUP16 GT 0x2A 0xE7 PUSH8 0x73B6BC4CB93E9385 0x5F CALLDATACOPY SWAP2 SHR SWAP14 SWAP9 EXTCODECOPY DUP4 SIGNEXTEND DUP11 PUSH5 0x736F6C6343 STOP ADDMOD SGT STOP CALLER ",
          "linkReferences": {}
        },
        "methodIdentifiers": {
          "apy()": "3bcfc4b8",
          "claimRewards(uint256)": "0962ef79",
          "getUserRewards()": "c0d18502",
          "getUserStake()": "16f9c8fd",
          "migration(uint256,address)": "8c6f3349",
          "owner()": "8da5cb5b",
          "pause()": "8456cb59",
          "renounceOwnership()": "715018a6",
          "restake(uint256)": "bce1b520",
          "setAPY(uint16)": "24b3f698",
          "stake()": "3a4b66f1",
          "stakes(address)": "16934fc4",
          "transferOwnership(address)": "f2fde38b",
          "unstake(uint256)": "2e17de78",
          "updateStakingPause(bool)": "df2982de"
        }
      }
    }
  }
}