{"abi":[{"type":"function","name":"Q112","inputs":[],"outputs":[{"name":"","type":"uint256","internalType":"uint256"}],"stateMutability":"view"},{"type":"function","name":"RESOLUTION","inputs":[],"outputs":[{"name":"","type":"uint8","internalType":"uint8"}],"stateMutability":"view"}],"bytecode":{"object":"0x60b8610039600b82828239805160001a60731461002c57634e487b7160e01b600052600060045260246000fd5b30600052607381538281f3fe7300000000000000000000000000000000000000003014608060405260043610603d5760003560e01c80633bf7a83e146042578063552f888a14606a575b600080fd5b60576e01000000000000000000000000000081565b6040519081526020015b60405180910390f35b6071607081565b60405160ff9091168152602001606156fea2646970667358221220dbdec2424e4b85e9a20a299010f7c16536f5f0f9b90d42cb5822550d00c4dd7f64736f6c63430008170033","linkReferences":{}},"methodIdentifiers":{"Q112()":"3bf7a83e","RESOLUTION()":"552f888a"},"id":22}