{
  "abi": [
    {
      "inputs": [
        {
          "components": [
            {
              "internalType": "address",
              "name": "target",
              "type": "address"
            },
            {
              "internalType": "bytes",
              "name": "callData",
              "type": "bytes"
            }
          ],
          "internalType": "struct Multicall.Call[]",
          "name": "calls",
          "type": "tuple[]"
        }
      ],
      "name": "aggregate",
      "outputs": [
        {
          "internalType": "uint256",
          "name": "blockNumber",
          "type": "uint256"
        },
        {
          "internalType": "bytes[]",
          "name": "returnData",
          "type": "bytes[]"
        }
      ],
      "stateMutability": "nonpayable",
      "type": "function"
    },
    {
      "inputs": [
        {
          "internalType": "uint256",
          "name": "blockNumber",
          "type": "uint256"
        }
      ],
      "name": "getBlockHash",
      "outputs": [
        {
          "internalType": "bytes32",
          "name": "blockHash",
          "type": "bytes32"
        }
      ],
      "stateMutability": "view",
      "type": "function"
    },
    {
      "inputs": [],
      "name": "getCurrentBlockCoinbase",
      "outputs": [
        {
          "internalType": "address",
          "name": "coinbase",
          "type": "address"
        }
      ],
      "stateMutability": "view",
      "type": "function"
    },
    {
      "inputs": [],
      "name": "getCurrentBlockDifficulty",
      "outputs": [
        {
          "internalType": "uint256",
          "name": "difficulty",
          "type": "uint256"
        }
      ],
      "stateMutability": "view",
      "type": "function"
    },
    {
      "inputs": [],
      "name": "getCurrentBlockGasLimit",
      "outputs": [
        {
          "internalType": "uint256",
          "name": "gaslimit",
          "type": "uint256"
        }
      ],
      "stateMutability": "view",
      "type": "function"
    },
    {
      "inputs": [],
      "name": "getCurrentBlockTimestamp",
      "outputs": [
        {
          "internalType": "uint256",
          "name": "timestamp",
          "type": "uint256"
        }
      ],
      "stateMutability": "view",
      "type": "function"
    },
    {
      "inputs": [
        {
          "internalType": "address",
          "name": "addr",
          "type": "address"
        }
      ],
      "name": "getEthBalance",
      "outputs": [
        {
          "internalType": "uint256",
          "name": "balance",
          "type": "uint256"
        }
      ],
      "stateMutability": "view",
      "type": "function"
    },
    {
      "inputs": [],
      "name": "getLastBlockHash",
      "outputs": [
        {
          "internalType": "bytes32",
          "name": "blockHash",
          "type": "bytes32"
        }
      ],
      "stateMutability": "view",
      "type": "function"
    }
  ],
  "bytecode": {
    "object": "0x608060405234801561001057600080fd5b5061069e806100206000396000f3fe608060405234801561001057600080fd5b50600436106100885760003560e01c806372425d9d1161005b57806372425d9d146100f357806386d516e8146100f9578063a8b0574e146100ff578063ee82ac5e1461010d57600080fd5b80630f28c97d1461008d578063252dba42146100a257806327e86d6e146100c35780634d2301cc146100cb575b600080fd5b425b6040519081526020015b60405180910390f35b6100b56100b0366004610344565b61011f565b6040516100999291906104e4565b61008f610261565b61008f6100d93660046105a2565b73ffffffffffffffffffffffffffffffffffffffff163190565b4461008f565b4561008f565b604051418152602001610099565b61008f61011b3660046105c4565b4090565b8051439060609067ffffffffffffffff81111561013e5761013e610274565b60405190808252806020026020018201604052801561017157816020015b606081526020019060019003908161015c5790505b50905060005b835181101561025b57600080858381518110610195576101956105dd565b60200260200101516000015173ffffffffffffffffffffffffffffffffffffffff168684815181106101c9576101c96105dd565b6020026020010151602001516040516101e2919061060c565b6000604051808303816000865af19150503d806000811461021f576040519150601f19603f3d011682016040523d82523d6000602084013e610224565b606091505b50915091508161023357600080fd5b80848481518110610246576102466105dd565b60209081029190910101525050600101610177565b50915091565b600061026e600143610628565b40905090565b7f4e487b7100000000000000000000000000000000000000000000000000000000600052604160045260246000fd5b6040805190810167ffffffffffffffff811182821017156102c6576102c6610274565b60405290565b604051601f82017fffffffffffffffffffffffffffffffffffffffffffffffffffffffffffffffe016810167ffffffffffffffff8111828210171561031357610313610274565b604052919050565b803573ffffffffffffffffffffffffffffffffffffffff8116811461033f57600080fd5b919050565b6000602080838503121561035757600080fd5b823567ffffffffffffffff8082111561036f57600080fd5b818501915085601f83011261038357600080fd5b81358181111561039557610395610274565b8060051b6103a48582016102cc565b91825283810185019185810190898411156103be57600080fd5b86860192505b838310156104b3578235858111156103dc5760008081fd5b860160407fffffffffffffffffffffffffffffffffffffffffffffffffffffffffffffffe0828d0381018213156104135760008081fd5b61041b6102a3565b6104268b850161031b565b8152828401358981111561043a5760008081fd5b8085019450508d603f8501126104505760008081fd5b8a8401358981111561046457610464610274565b6104748c84601f840116016102cc565b92508083528e8482870101111561048b5760008081fd5b808486018d85013760009083018c0152808b01919091528452505091860191908601906103c4565b9998505050505050505050565b60005b838110156104db5781810151838201526020016104c3565b50506000910152565b600060408201848352602060408185015281855180845260608601915060608160051b870101935082870160005b82811015610594577fffffffffffffffffffffffffffffffffffffffffffffffffffffffffffffffa08887030184528151805180885261055781888a018985016104c0565b601f017fffffffffffffffffffffffffffffffffffffffffffffffffffffffffffffffe01696909601850195509284019290840190600101610512565b509398975050505050505050565b6000602082840312156105b457600080fd5b6105bd8261031b565b9392505050565b6000602082840312156105d657600080fd5b5035919050565b7f4e487b7100000000000000000000000000000000000000000000000000000000600052603260045260246000fd5b6000825161061e8184602087016104c0565b9190910192915050565b81810381811115610662577f4e487b7100000000000000000000000000000000000000000000000000000000600052601160045260246000fd5b9291505056fea264697066735822122020e3dd3a9f26a63bcb83e72b5b93c13c118476a2445b47d4944b57c90357a05764736f6c63430008160033",
    "linkReferences": {}
  },
  "methodIdentifiers": {
    "aggregate((address,bytes)[])": "252dba42",
    "getBlockHash(uint256)": "ee82ac5e",
    "getCurrentBlockCoinbase()": "a8b0574e",
    "getCurrentBlockDifficulty()": "72425d9d",
    "getCurrentBlockGasLimit()": "86d516e8",
    "getCurrentBlockTimestamp()": "0f28c97d",
    "getEthBalance(address)": "4d2301cc",
    "getLastBlockHash()": "27e86d6e"
  },
  "id": 31
}