{
  "abi": [
    {
      "anonymous": false,
      "inputs": [
        {
          "indexed": false,
          "internalType": "address",
          "name": "contractAddress",
          "type": "address"
        },
        {
          "indexed": false,
          "internalType": "string",
          "name": "action",
          "type": "string"
        },
        {
          "indexed": false,
          "internalType": "uint32",
          "name": "timeStamp",
          "type": "uint32"
        }
      ],
      "name": "AccessedFunds",
      "type": "event"
    },
    {
      "anonymous": false,
      "inputs": [
        {
          "indexed": false,
          "internalType": "uint256",
          "name": "amount",
          "type": "uint256"
        },
        {
          "indexed": false,
          "internalType": "address",
          "name": "newAddress",
          "type": "address"
        },
        {
          "indexed": false,
          "internalType": "uint32",
          "name": "timeStamp",
          "type": "uint32"
        }
      ],
      "name": "AmountMigrated",
      "type": "event"
    },
    {
      "anonymous": false,
      "inputs": [
        {
          "indexed": false,
          "internalType": "address",
          "name": "contractAddress",
          "type": "address"
        },
        {
          "indexed": false,
          "internalType": "uint32",
          "name": "timeStamp",
          "type": "uint32"
        }
      ],
      "name": "ContractVerified",
      "type": "event"
    },
    {
      "anonymous": false,
      "inputs": [
        {
          "indexed": false,
          "internalType": "uint8",
          "name": "version",
          "type": "uint8"
        }
      ],
      "name": "Initialized",
      "type": "event"
    },
    {
      "anonymous": false,
      "inputs": [
        {
          "indexed": false,
          "internalType": "uint256",
          "name": "amount",
          "type": "uint256"
        },
        {
          "indexed": false,
          "internalType": "uint32",
          "name": "timeStamp",
          "type": "uint32"
        }
      ],
      "name": "OwnerAccessFunds",
      "type": "event"
    },
    {
      "anonymous": false,
      "inputs": [
        {
          "indexed": true,
          "internalType": "address",
          "name": "previousOwner",
          "type": "address"
        },
        {
          "indexed": true,
          "internalType": "address",
          "name": "newOwner",
          "type": "address"
        }
      ],
      "name": "OwnershipTransferred",
      "type": "event"
    },
    {
      "stateMutability": "payable",
      "type": "fallback"
    },
    {
      "inputs": [
        {
          "internalType": "uint256",
          "name": "_amount",
          "type": "uint256"
        },
        {
          "internalType": "string",
          "name": "_action",
          "type": "string"
        }
      ],
      "name": "accessFunds",
      "outputs": [],
      "stateMutability": "nonpayable",
      "type": "function"
    },
    {
      "inputs": [
        {
          "internalType": "uint256",
          "name": "_amount",
          "type": "uint256"
        }
      ],
      "name": "extractFunds",
      "outputs": [],
      "stateMutability": "nonpayable",
      "type": "function"
    },
    {
      "inputs": [
        {
          "internalType": "address",
          "name": "_owner",
          "type": "address"
        }
      ],
      "name": "initialize",
      "outputs": [],
      "stateMutability": "payable",
      "type": "function"
    },
    {
      "inputs": [
        {
          "internalType": "uint256",
          "name": "amount",
          "type": "uint256"
        },
        {
          "internalType": "address",
          "name": "newAddress",
          "type": "address"
        }
      ],
      "name": "migration",
      "outputs": [],
      "stateMutability": "nonpayable",
      "type": "function"
    },
    {
      "inputs": [],
      "name": "owner",
      "outputs": [
        {
          "internalType": "address",
          "name": "",
          "type": "address"
        }
      ],
      "stateMutability": "view",
      "type": "function"
    },
    {
      "inputs": [],
      "name": "renounceOwnership",
      "outputs": [],
      "stateMutability": "nonpayable",
      "type": "function"
    },
    {
      "inputs": [
        {
          "internalType": "address",
          "name": "newOwner",
          "type": "address"
        }
      ],
      "name": "transferOwnership",
      "outputs": [],
      "stateMutability": "nonpayable",
      "type": "function"
    },
    {
      "inputs": [
        {
          "internalType": "address",
          "name": "",
          "type": "address"
        }
      ],
      "name": "verifiedContract",
      "outputs": [
        {
          "internalType": "bool",
          "name": "",
          "type": "bool"
        }
      ],
      "stateMutability": "view",
      "type": "function"
    },
    {
      "inputs": [
        {
          "internalType": "address",
          "name": "_contract",
          "type": "address"
        }
      ],
      "name": "verifyContract",
      "outputs": [],
      "stateMutability": "nonpayable",
      "type": "function"
    },
    {
      "stateMutability": "payable",
      "type": "receive"
    }
  ],
  "bytecode": {
    "object": "0x608060405234801561001057600080fd5b506001606555611123806100256000396000f3fe6080604052600436106100915760003560e01c80638da5cb5b11610063578063aaafa23f1161004b578063aaafa23f14610189578063c4d66de8146101a9578063f2fde38b146101bc57005b80638da5cb5b14610134578063a32d24401461016957005b80633d200b451461009a578063715018a6146100ba5780638632dbbe146100cf5780638c6f33491461011457005b3661009857005b005b3480156100a657600080fd5b506100986100b5366004610ee6565b6101dc565b3480156100c657600080fd5b506100986102f6565b3480156100db57600080fd5b506100ff6100ea366004610ee6565b60666020526000908152604090205460ff1681565b60405190151581526020015b60405180910390f35b34801561012057600080fd5b5061009861012f366004610f08565b61030a565b34801561014057600080fd5b5060335460405173ffffffffffffffffffffffffffffffffffffffff909116815260200161010b565b34801561017557600080fd5b50610098610184366004610f63565b6105c4565b34801561019557600080fd5b506100986101a436600461103c565b6107c1565b6100986101b7366004610ee6565b6109c9565b3480156101c857600080fd5b506100986101d7366004610ee6565b610b64565b6101e4610c18565b73ffffffffffffffffffffffffffffffffffffffff8116610266576040517f08c379a000000000000000000000000000000000000000000000000000000000815260206004820152601860248201527f696e76616c696420636f6e74726163742061646472657373000000000000000060448201526064015b60405180910390fd5b73ffffffffffffffffffffffffffffffffffffffff811660008181526066602090815260409182902080547fffffffffffffffffffffffffffffffffffffffffffffffffffffffffffffff0016600117905581519283524263ffffffff16908301527f2f0ca928d7e629f2329ba461aa34594df001a516ffa5353d2dd549874d89e7db910160405180910390a150565b6102fe610c18565b6103086000610c99565b565b610312610d10565b61031a610c18565b81471015610384576040517f08c379a000000000000000000000000000000000000000000000000000000000815260206004820152601d60248201527f436f6e747261637420696e73756666696369656e742062616c616e6365000000604482015260640161025d565b600082116103ee576040517f08c379a000000000000000000000000000000000000000000000000000000000815260206004820152600e60248201527f696e76616c696420616d6f756e74000000000000000000000000000000000000604482015260640161025d565b73ffffffffffffffffffffffffffffffffffffffff811661046b576040517f08c379a000000000000000000000000000000000000000000000000000000000815260206004820152600f60248201527f696e76616c696420616464726573730000000000000000000000000000000000604482015260640161025d565b6040805183815273ffffffffffffffffffffffffffffffffffffffff831660208201524263ffffffff168183015290517fb5a07b1f4bc2f4ff306ef2ad16fb57d1a54b12930178ff22caa5169642b8ef419181900360600190a160008173ffffffffffffffffffffffffffffffffffffffff168360405160006040518083038185875af1925050503d806000811461051f576040519150601f19603f3d011682016040523d82523d6000602084013e610524565b606091505b50509050806105b5576040517f08c379a000000000000000000000000000000000000000000000000000000000815260206004820152603360248201527f556e61626c6520746f2073656e642076616c7565206f7220726563697069656e60448201527f74206d6179206861766520726576657274656400000000000000000000000000606482015260840161025d565b506105c06001606555565b5050565b3360009081526066602052604090205460ff1661063d576040517f08c379a000000000000000000000000000000000000000000000000000000000815260206004820152601860248201527f636f6e7472616374206973206e6f742076657269666965640000000000000000604482015260640161025d565b610645610d10565b33478311156106b0576040517f08c379a000000000000000000000000000000000000000000000000000000000815260206004820152601560248201527f4e6f204e524b20746f6b656e7320696e20706f6f6c0000000000000000000000604482015260640161025d565b60008173ffffffffffffffffffffffffffffffffffffffff168460405160006040518083038185875af1925050503d806000811461070a576040519150601f19603f3d011682016040523d82523d6000602084013e61070f565b606091505b505090508061077a576040517f08c379a000000000000000000000000000000000000000000000000000000000815260206004820152601960248201527f6661696c656420746f2073656e64204e524b20746f6b656e7300000000000000604482015260640161025d565b7f9f705416861499a09cd46d28e87ee1041fec713ff0db1698d34ed3bf62574a0e8284426040516107ad93929190611055565b60405180910390a150506105c06001606555565b6107c9610c18565b6107d1610d10565b8047101561083b576040517f08c379a000000000000000000000000000000000000000000000000000000000815260206004820152601d60248201527f436f6e747261637420696e73756666696369656e742062616c616e6365000000604482015260640161025d565b600081116108a5576040517f08c379a000000000000000000000000000000000000000000000000000000000815260206004820152600e60248201527f696e76616c696420616d6f756e74000000000000000000000000000000000000604482015260640161025d565b604051600090339083908381818185875af1925050503d80600081146108e7576040519150601f19603f3d011682016040523d82523d6000602084013e6108ec565b606091505b505090508061097d576040517f08c379a000000000000000000000000000000000000000000000000000000000815260206004820152603360248201527f556e61626c6520746f2073656e642076616c7565206f7220726563697069656e60448201527f74206d6179206861766520726576657274656400000000000000000000000000606482015260840161025d565b6040805183815263ffffffff421660208201527fc6ee7d3bab11983542e4dc677b2299dabf95765959bcaccbcccf54dc7dbf6628910160405180910390a1506109c66001606555565b50565b600054610100900460ff16158080156109e95750600054600160ff909116105b80610a035750303b158015610a03575060005460ff166001145b610a8f576040517f08c379a000000000000000000000000000000000000000000000000000000000815260206004820152602e60248201527f496e697469616c697a61626c653a20636f6e747261637420697320616c72656160448201527f647920696e697469616c697a6564000000000000000000000000000000000000606482015260840161025d565b600080547fffffffffffffffffffffffffffffffffffffffffffffffffffffffffffffff001660011790558015610aed57600080547fffffffffffffffffffffffffffffffffffffffffffffffffffffffffffff00ff166101001790555b610af5610d83565b610afe82610b64565b80156105c057600080547fffffffffffffffffffffffffffffffffffffffffffffffffffffffffffff00ff169055604051600181527f7f26b83ff96e1f2b6a682f133852f6798a09c465da95921460cefb38474024989060200160405180910390a15050565b610b6c610c18565b73ffffffffffffffffffffffffffffffffffffffff8116610c0f576040517f08c379a000000000000000000000000000000000000000000000000000000000815260206004820152602660248201527f4f776e61626c653a206e6577206f776e657220697320746865207a65726f206160448201527f6464726573730000000000000000000000000000000000000000000000000000606482015260840161025d565b6109c681610c99565b60335473ffffffffffffffffffffffffffffffffffffffff163314610308576040517f08c379a000000000000000000000000000000000000000000000000000000000815260206004820181905260248201527f4f776e61626c653a2063616c6c6572206973206e6f7420746865206f776e6572604482015260640161025d565b6033805473ffffffffffffffffffffffffffffffffffffffff8381167fffffffffffffffffffffffff0000000000000000000000000000000000000000831681179093556040519116919082907f8be0079c531659141344cd1fd0a4f28419497f9722a3daafe3b4186f6b6457e090600090a35050565b600260655403610d7c576040517f08c379a000000000000000000000000000000000000000000000000000000000815260206004820152601f60248201527f5265656e7472616e637947756172643a207265656e7472616e742063616c6c00604482015260640161025d565b6002606555565b600054610100900460ff16610e1a576040517f08c379a000000000000000000000000000000000000000000000000000000000815260206004820152602b60248201527f496e697469616c697a61626c653a20636f6e7472616374206973206e6f74206960448201527f6e697469616c697a696e67000000000000000000000000000000000000000000606482015260840161025d565b610308600054610100900460ff16610eb4576040517f08c379a000000000000000000000000000000000000000000000000000000000815260206004820152602b60248201527f496e697469616c697a61626c653a20636f6e7472616374206973206e6f74206960448201527f6e697469616c697a696e67000000000000000000000000000000000000000000606482015260840161025d565b61030833610c99565b803573ffffffffffffffffffffffffffffffffffffffff81168114610ee157600080fd5b919050565b600060208284031215610ef857600080fd5b610f0182610ebd565b9392505050565b60008060408385031215610f1b57600080fd5b82359150610f2b60208401610ebd565b90509250929050565b7f4e487b7100000000000000000000000000000000000000000000000000000000600052604160045260246000fd5b60008060408385031215610f7657600080fd5b82359150602083013567ffffffffffffffff80821115610f9557600080fd5b818501915085601f830112610fa957600080fd5b813581811115610fbb57610fbb610f34565b604051601f82017fffffffffffffffffffffffffffffffffffffffffffffffffffffffffffffffe0908116603f0116810190838211818310171561100157611001610f34565b8160405282815288602084870101111561101a57600080fd5b8260208601602083013760006020848301015280955050505050509250929050565b60006020828403121561104e57600080fd5b5035919050565b73ffffffffffffffffffffffffffffffffffffffff841681526000602060606020840152845180606085015260005b818110156110a057868101830151858201608001528201611084565b5060006080828601015260807fffffffffffffffffffffffffffffffffffffffffffffffffffffffffffffffe0601f8301168501019250505063ffffffff8316604083015294935050505056fea2646970667358221220d6436d47647cf2596ebc8adce23d755459da4ec0d18b3b7e0081fa4941027d8764736f6c63430008160033",
    "linkReferences": {}
  },
  "methodIdentifiers": {
    "accessFunds(uint256,string)": "a32d2440",
    "extractFunds(uint256)": "aaafa23f",
    "initialize(address)": "c4d66de8",
    "migration(uint256,address)": "8c6f3349",
    "owner()": "8da5cb5b",
    "renounceOwnership()": "715018a6",
    "transferOwnership(address)": "f2fde38b",
    "verifiedContract(address)": "8632dbbe",
    "verifyContract(address)": "3d200b45"
  },
  "id": 1
}