{
  "abi": [
    {
      "anonymous": false,
      "inputs": [
        {
          "indexed": true,
          "internalType": "address",
          "name": "user",
          "type": "address"
        },
        {
          "indexed": false,
          "internalType": "uint256",
          "name": "totalReward",
          "type": "uint256"
        },
        {
          "indexed": false,
          "internalType": "uint32",
          "name": "timeOfClaim",
          "type": "uint32"
        }
      ],
      "name": "AllRewardClaimed",
      "type": "event"
    },
    {
      "anonymous": false,
      "inputs": [
        {
          "indexed": false,
          "internalType": "uint256",
          "name": "amount",
          "type": "uint256"
        },
        {
          "indexed": false,
          "internalType": "address",
          "name": "newAddress",
          "type": "address"
        },
        {
          "indexed": false,
          "internalType": "uint32",
          "name": "migrationTime",
          "type": "uint32"
        }
      ],
      "name": "AmountMigrated",
      "type": "event"
    },
    {
      "anonymous": false,
      "inputs": [
        {
          "indexed": false,
          "internalType": "uint256",
          "name": "apy",
          "type": "uint256"
        },
        {
          "indexed": false,
          "internalType": "uint32",
          "name": "timeStamp",
          "type": "uint32"
        }
      ],
      "name": "ApyUpdated",
      "type": "event"
    },
    {
      "anonymous": false,
      "inputs": [
        {
          "indexed": false,
          "internalType": "uint256",
          "name": "frequency",
          "type": "uint256"
        },
        {
          "indexed": false,
          "internalType": "uint32",
          "name": "timeStamp",
          "type": "uint32"
        }
      ],
      "name": "FrequencyUpdated",
      "type": "event"
    },
    {
      "anonymous": false,
      "inputs": [
        {
          "indexed": false,
          "internalType": "uint8",
          "name": "version",
          "type": "uint8"
        }
      ],
      "name": "Initialized",
      "type": "event"
    },
    {
      "anonymous": false,
      "inputs": [
        {
          "indexed": false,
          "internalType": "address",
          "name": "newPool",
          "type": "address"
        },
        {
          "indexed": false,
          "internalType": "uint32",
          "name": "timeStamp",
          "type": "uint32"
        }
      ],
      "name": "LiquidityPoolUpdated",
      "type": "event"
    },
    {
      "anonymous": false,
      "inputs": [
        {
          "indexed": false,
          "internalType": "uint256",
          "name": "minimumStake",
          "type": "uint256"
        },
        {
          "indexed": false,
          "internalType": "uint32",
          "name": "timeStamp",
          "type": "uint32"
        }
      ],
      "name": "MinimumStakeUpdated",
      "type": "event"
    },
    {
      "anonymous": false,
      "inputs": [
        {
          "indexed": true,
          "internalType": "address",
          "name": "previousOwner",
          "type": "address"
        },
        {
          "indexed": true,
          "internalType": "address",
          "name": "newOwner",
          "type": "address"
        }
      ],
      "name": "OwnershipTransferred",
      "type": "event"
    },
    {
      "anonymous": false,
      "inputs": [
        {
          "indexed": true,
          "internalType": "address",
          "name": "user",
          "type": "address"
        },
        {
          "indexed": false,
          "internalType": "uint256",
          "name": "amount",
          "type": "uint256"
        },
        {
          "indexed": false,
          "internalType": "uint32",
          "name": "stakeTime",
          "type": "uint32"
        },
        {
          "indexed": false,
          "internalType": "uint256",
          "name": "slotId",
          "type": "uint256"
        },
        {
          "indexed": false,
          "internalType": "uint256",
          "name": "rewardsLeft",
          "type": "uint256"
        }
      ],
      "name": "ReStaked",
      "type": "event"
    },
    {
      "anonymous": false,
      "inputs": [
        {
          "indexed": false,
          "internalType": "address",
          "name": "user",
          "type": "address"
        },
        {
          "indexed": false,
          "internalType": "uint256",
          "name": "restakedAmount",
          "type": "uint256"
        },
        {
          "indexed": false,
          "internalType": "uint32",
          "name": "timeStamp",
          "type": "uint32"
        }
      ],
      "name": "RestakedAll",
      "type": "event"
    },
    {
      "anonymous": false,
      "inputs": [
        {
          "indexed": true,
          "internalType": "address",
          "name": "user",
          "type": "address"
        },
        {
          "indexed": false,
          "internalType": "uint256",
          "name": "totalReward",
          "type": "uint256"
        },
        {
          "indexed": false,
          "internalType": "uint32",
          "name": "timeOfClaim",
          "type": "uint32"
        },
        {
          "indexed": false,
          "internalType": "uint256",
          "name": "slotId",
          "type": "uint256"
        },
        {
          "indexed": false,
          "internalType": "uint256",
          "name": "rewardsLeft",
          "type": "uint256"
        }
      ],
      "name": "RewardClaimed",
      "type": "event"
    },
    {
      "anonymous": false,
      "inputs": [
        {
          "indexed": true,
          "internalType": "address",
          "name": "user",
          "type": "address"
        },
        {
          "indexed": false,
          "internalType": "uint256",
          "name": "amount",
          "type": "uint256"
        },
        {
          "indexed": false,
          "internalType": "uint32",
          "name": "stakeTime",
          "type": "uint32"
        },
        {
          "indexed": false,
          "internalType": "uint256",
          "name": "slotId",
          "type": "uint256"
        }
      ],
      "name": "Staked",
      "type": "event"
    },
    {
      "anonymous": false,
      "inputs": [
        {
          "indexed": true,
          "internalType": "address",
          "name": "user",
          "type": "address"
        },
        {
          "indexed": false,
          "internalType": "uint256",
          "name": "amount",
          "type": "uint256"
        },
        {
          "indexed": false,
          "internalType": "uint32",
          "name": "unstakeTime",
          "type": "uint32"
        },
        {
          "indexed": false,
          "internalType": "uint256",
          "name": "slotid",
          "type": "uint256"
        },
        {
          "indexed": false,
          "internalType": "uint256",
          "name": "rewards",
          "type": "uint256"
        }
      ],
      "name": "Unstaked",
      "type": "event"
    },
    {
      "anonymous": false,
      "inputs": [
        {
          "indexed": true,
          "internalType": "address",
          "name": "user",
          "type": "address"
        },
        {
          "indexed": false,
          "internalType": "uint256",
          "name": "totalAmount",
          "type": "uint256"
        },
        {
          "indexed": false,
          "internalType": "uint256",
          "name": "rewards",
          "type": "uint256"
        },
        {
          "indexed": false,
          "internalType": "uint32",
          "name": "unstakeTime",
          "type": "uint32"
        }
      ],
      "name": "UnstakedAllTokens",
      "type": "event"
    },
    {
      "anonymous": false,
      "inputs": [
        {
          "indexed": true,
          "internalType": "address",
          "name": "user",
          "type": "address"
        },
        {
          "indexed": false,
          "internalType": "uint256",
          "name": "amount",
          "type": "uint256"
        },
        {
          "indexed": false,
          "internalType": "uint32",
          "name": "unstakeTime",
          "type": "uint32"
        },
        {
          "indexed": false,
          "internalType": "uint256",
          "name": "_slotId",
          "type": "uint256"
        },
        {
          "indexed": false,
          "internalType": "uint256",
          "name": "rewardsLeft",
          "type": "uint256"
        }
      ],
      "name": "UnstakedTokens",
      "type": "event"
    },
    {
      "stateMutability": "payable",
      "type": "fallback"
    },
    {
      "inputs": [
        {
          "internalType": "uint256",
          "name": "",
          "type": "uint256"
        }
      ],
      "name": "apy",
      "outputs": [
        {
          "internalType": "uint16",
          "name": "value",
          "type": "uint16"
        },
        {
          "internalType": "uint32",
          "name": "changeTime",
          "type": "uint32"
        }
      ],
      "stateMutability": "view",
      "type": "function"
    },
    {
      "inputs": [],
      "name": "claimAllRewards",
      "outputs": [],
      "stateMutability": "nonpayable",
      "type": "function"
    },
    {
      "inputs": [
        {
          "internalType": "uint256",
          "name": "_rewardAmount",
          "type": "uint256"
        },
        {
          "internalType": "uint256",
          "name": "_slotId",
          "type": "uint256"
        }
      ],
      "name": "claimRewards",
      "outputs": [],
      "stateMutability": "nonpayable",
      "type": "function"
    },
    {
      "inputs": [],
      "name": "frequency",
      "outputs": [
        {
          "internalType": "uint256",
          "name": "",
          "type": "uint256"
        }
      ],
      "stateMutability": "view",
      "type": "function"
    },
    {
      "inputs": [],
      "name": "getCurrentApy",
      "outputs": [
        {
          "internalType": "uint256",
          "name": "",
          "type": "uint256"
        }
      ],
      "stateMutability": "view",
      "type": "function"
    },
    {
      "inputs": [],
      "name": "getTotalRewards",
      "outputs": [
        {
          "internalType": "uint256",
          "name": "",
          "type": "uint256"
        }
      ],
      "stateMutability": "view",
      "type": "function"
    },
    {
      "inputs": [
        {
          "internalType": "uint256",
          "name": "_slotId",
          "type": "uint256"
        }
      ],
      "name": "getUserRewards",
      "outputs": [
        {
          "internalType": "uint256",
          "name": "",
          "type": "uint256"
        }
      ],
      "stateMutability": "view",
      "type": "function"
    },
    {
      "inputs": [
        {
          "internalType": "uint256",
          "name": "_slotId",
          "type": "uint256"
        }
      ],
      "name": "getUserStake",
      "outputs": [
        {
          "internalType": "uint256",
          "name": "amount",
          "type": "uint256"
        },
        {
          "internalType": "uint32",
          "name": "startTime",
          "type": "uint32"
        }
      ],
      "stateMutability": "view",
      "type": "function"
    },
    {
      "inputs": [],
      "name": "getUserStakesInfo",
      "outputs": [
        {
          "components": [
            {
              "internalType": "uint256",
              "name": "amount",
              "type": "uint256"
            },
            {
              "internalType": "uint256",
              "name": "rewards",
              "type": "uint256"
            },
            {
              "internalType": "uint32",
              "name": "startTime",
              "type": "uint32"
            },
            {
              "internalType": "uint256",
              "name": "id",
              "type": "uint256"
            }
          ],
          "internalType": "struct StakingContract.Slot[]",
          "name": "",
          "type": "tuple[]"
        }
      ],
      "stateMutability": "view",
      "type": "function"
    },
    {
      "inputs": [],
      "name": "getUserTotalStakes",
      "outputs": [
        {
          "internalType": "uint256",
          "name": "amount",
          "type": "uint256"
        }
      ],
      "stateMutability": "view",
      "type": "function"
    },
    {
      "inputs": [
        {
          "internalType": "uint16",
          "name": "_apy",
          "type": "uint16"
        },
        {
          "internalType": "uint256",
          "name": "_minimumStake",
          "type": "uint256"
        },
        {
          "internalType": "uint256",
          "name": "_frequency",
          "type": "uint256"
        },
        {
          "internalType": "address",
          "name": "_liquidityPool",
          "type": "address"
        },
        {
          "internalType": "address",
          "name": "_owner",
          "type": "address"
        }
      ],
      "name": "initialize",
      "outputs": [],
      "stateMutability": "nonpayable",
      "type": "function"
    },
    {
      "inputs": [],
      "name": "liquidityPool",
      "outputs": [
        {
          "internalType": "contract ILiquidityPool",
          "name": "",
          "type": "address"
        }
      ],
      "stateMutability": "view",
      "type": "function"
    },
    {
      "inputs": [
        {
          "internalType": "uint256",
          "name": "amount",
          "type": "uint256"
        },
        {
          "internalType": "address",
          "name": "newAddress",
          "type": "address"
        }
      ],
      "name": "migration",
      "outputs": [],
      "stateMutability": "nonpayable",
      "type": "function"
    },
    {
      "inputs": [],
      "name": "minimumStake",
      "outputs": [
        {
          "internalType": "uint256",
          "name": "",
          "type": "uint256"
        }
      ],
      "stateMutability": "view",
      "type": "function"
    },
    {
      "inputs": [],
      "name": "owner",
      "outputs": [
        {
          "internalType": "address",
          "name": "",
          "type": "address"
        }
      ],
      "stateMutability": "view",
      "type": "function"
    },
    {
      "inputs": [],
      "name": "pause",
      "outputs": [
        {
          "internalType": "bool",
          "name": "",
          "type": "bool"
        }
      ],
      "stateMutability": "view",
      "type": "function"
    },
    {
      "inputs": [],
      "name": "renounceOwnership",
      "outputs": [],
      "stateMutability": "nonpayable",
      "type": "function"
    },
    {
      "inputs": [
        {
          "internalType": "uint256",
          "name": "_amount",
          "type": "uint256"
        },
        {
          "internalType": "uint256",
          "name": "_slotId",
          "type": "uint256"
        }
      ],
      "name": "restake",
      "outputs": [],
      "stateMutability": "nonpayable",
      "type": "function"
    },
    {
      "inputs": [
        {
          "internalType": "uint256",
          "name": "amount",
          "type": "uint256"
        }
      ],
      "name": "restake",
      "outputs": [],
      "stateMutability": "nonpayable",
      "type": "function"
    },
    {
      "inputs": [],
      "name": "restakeAll",
      "outputs": [],
      "stateMutability": "nonpayable",
      "type": "function"
    },
    {
      "inputs": [
        {
          "internalType": "uint16",
          "name": "_newAPY",
          "type": "uint16"
        }
      ],
      "name": "setAPY",
      "outputs": [],
      "stateMutability": "nonpayable",
      "type": "function"
    },
    {
      "inputs": [
        {
          "internalType": "uint256",
          "name": "_frequency",
          "type": "uint256"
        }
      ],
      "name": "setFrequency",
      "outputs": [],
      "stateMutability": "nonpayable",
      "type": "function"
    },
    {
      "inputs": [
        {
          "internalType": "address",
          "name": "_liquidityPool",
          "type": "address"
        }
      ],
      "name": "setLiquidityPool",
      "outputs": [],
      "stateMutability": "nonpayable",
      "type": "function"
    },
    {
      "inputs": [
        {
          "internalType": "uint256",
          "name": "_newMinimumStake",
          "type": "uint256"
        }
      ],
      "name": "setMinimumStake",
      "outputs": [],
      "stateMutability": "nonpayable",
      "type": "function"
    },
    {
      "inputs": [],
      "name": "stake",
      "outputs": [],
      "stateMutability": "payable",
      "type": "function"
    },
    {
      "inputs": [
        {
          "internalType": "address",
          "name": "",
          "type": "address"
        }
      ],
      "name": "stakes",
      "outputs": [
        {
          "internalType": "uint256",
          "name": "counter",
          "type": "uint256"
        }
      ],
      "stateMutability": "view",
      "type": "function"
    },
    {
      "inputs": [
        {
          "internalType": "address",
          "name": "newOwner",
          "type": "address"
        }
      ],
      "name": "transferOwnership",
      "outputs": [],
      "stateMutability": "nonpayable",
      "type": "function"
    },
    {
      "inputs": [
        {
          "internalType": "uint256",
          "name": "amount",
          "type": "uint256"
        }
      ],
      "name": "unstake",
      "outputs": [],
      "stateMutability": "nonpayable",
      "type": "function"
    },
    {
      "inputs": [
        {
          "internalType": "uint256",
          "name": "_amount",
          "type": "uint256"
        },
        {
          "internalType": "uint256",
          "name": "_slotId",
          "type": "uint256"
        }
      ],
      "name": "unstake",
      "outputs": [],
      "stateMutability": "nonpayable",
      "type": "function"
    },
    {
      "inputs": [],
      "name": "unstakeAll",
      "outputs": [],
      "stateMutability": "nonpayable",
      "type": "function"
    },
    {
      "inputs": [
        {
          "internalType": "bool",
          "name": "_pause",
          "type": "bool"
        }
      ],
      "name": "updateStakingPause",
      "outputs": [],
      "stateMutability": "nonpayable",
      "type": "function"
    },
    {
      "stateMutability": "payable",
      "type": "receive"
    }
  ],
  "bytecode": {
    "object": "0x608060405234801561001057600080fd5b506001606555613ad1806100256000396000f3fe6080604052600436106101c45760003560e01c80638da5cb5b116100f6578063e1a9a6dd1161008f578063ec5ffac211610061578063ec5ffac214610598578063f2fde38b146105ae578063f426f03a146105ce578063f4925de5146105ee57005b8063e1a9a6dd1461050e578063e627f2db1461052e578063e75ac80914610543578063ead50da31461058257005b8063b8e7023d116100c8578063b8e7023d1461048e578063bce1b520146104ae578063bf23f103146104ce578063df2982de146104ee57005b80638da5cb5b146103c75780639e2c8a5b146103f2578063a9d48b4314610412578063acf3500a1461047957005b80633a4b66f111610168578063665a11ca1161013a578063665a11ca14610316578063715018a6146103685780638456cb591461037d5780638c6f3349146103a757005b80633a4b66f1146102b75780633ddfa45c146102bf5780633e19e8c1146102e1578063594dd432146102f657005b8063233e9903116101a1578063233e99031461024257806324b3f698146102625780632e17de781461028257806335322f37146102a257005b806301877020146101cd5780630b83a727146101ed57806316934fc41461020257005b366101cb57005b005b3480156101d957600080fd5b506101cb6101e83660046137af565b610603565b3480156101f957600080fd5b506101cb610690565b34801561020e57600080fd5b5061022f61021d3660046137af565b60696020526000908152604090205481565b6040519081526020015b60405180910390f35b34801561024e57600080fd5b506101cb61025d3660046137ca565b610a4f565b34801561026e57600080fd5b506101cb61027d3660046137f5565b610a97565b34801561028e57600080fd5b506101cb61029d3660046137ca565b610b66565b3480156102ae57600080fd5b506101cb611090565b6101cb611489565b3480156102cb57600080fd5b506102d46116e9565b6040516102399190613810565b3480156102ed57600080fd5b506101cb61180d565b34801561030257600080fd5b506101cb61031136600461387a565b611a0b565b34801561032257600080fd5b50606b546103439073ffffffffffffffffffffffffffffffffffffffff1681565b60405173ffffffffffffffffffffffffffffffffffffffff9091168152602001610239565b34801561037457600080fd5b506101cb611f65565b34801561038957600080fd5b506066546103979060ff1681565b6040519015158152602001610239565b3480156103b357600080fd5b506101cb6103c236600461389c565b611f77565b3480156103d357600080fd5b5060335473ffffffffffffffffffffffffffffffffffffffff16610343565b3480156103fe57600080fd5b506101cb61040d36600461387a565b61222d565b34801561041e57600080fd5b5061045f61042d3660046137ca565b33600090815260696020908152604080832093835260019093019052208054600290910154909163ffffffff90911690565b6040805192835263ffffffff909116602083015201610239565b34801561048557600080fd5b5061022f61271f565b34801561049a57600080fd5b506101cb6104a936600461387a565b61276d565b3480156104ba57600080fd5b506101cb6104c93660046137ca565b612a21565b3480156104da57600080fd5b506101cb6104e93660046138c8565b612d91565b3480156104fa57600080fd5b506101cb61050936600461391f565b61300f565b34801561051a57600080fd5b5061022f6105293660046137ca565b613048565b34801561053a57600080fd5b5061022f613091565b34801561054f57600080fd5b5061056361055e3660046137ca565b6130dc565b6040805161ffff909316835263ffffffff909116602083015201610239565b34801561058e57600080fd5b5061022f60685481565b3480156105a457600080fd5b5061022f60675481565b3480156105ba57600080fd5b506101cb6105c93660046137af565b61310e565b3480156105da57600080fd5b506101cb6105e93660046137ca565b6131c2565b3480156105fa57600080fd5b5061022f61320a565b61060b613243565b606b80547fffffffffffffffffffffffff00000000000000000000000000000000000000001673ffffffffffffffffffffffffffffffffffffffff83169081179091556040805191825263ffffffff421660208301527fc049d8d166ee43e6f237fb316263f0bad5585764d9661bb6877faec9c39634b891015b60405180910390a150565b6106986132c4565b60665460ff1615610730576040517f08c379a000000000000000000000000000000000000000000000000000000000815260206004820152602960248201527f506c65617365207761697420756e74696c20746865207374616b696e6720697360448201527f20756e706175736564000000000000000000000000000000000000000000000060648201526084015b60405180910390fd5b33600081815260696020526040812054919061074a613091565b606b54604080517fa32d2440000000000000000000000000000000000000000000000000000000008152600481018490526024810191909152601160448201527f434c41494d20414c4c2052455741524453000000000000000000000000000000606482015291925073ffffffffffffffffffffffffffffffffffffffff169063a32d244090608401600060405180830381600087803b1580156107ed57600080fd5b505af1158015610801573d6000803e3d6000fd5b5050505080471161086e576040517f08c379a000000000000000000000000000000000000000000000000000000000815260206004820152601d60248201527f436f6e747261637420696e73756666696369656e742062616c616e63650000006044820152606401610727565b60005b838110156108f85773ffffffffffffffffffffffffffffffffffffffff83166000908152606960209081526040808320848452600190810190925282209081019190915560020180547fffffffffffffffffffffffffffffffffffffffffffffffffffffffff00000000164263ffffffff16179055806108f081613970565b915050610871565b506040805182815263ffffffff4216602082015273ffffffffffffffffffffffffffffffffffffffff8416917fdb5eaf202904eee4b972abb0521f59d3eeef087208a2407e428687c4e49fa806910160405180910390a260008273ffffffffffffffffffffffffffffffffffffffff168260405160006040518083038185875af1925050503d80600081146109a9576040519150601f19603f3d011682016040523d82523d6000602084013e6109ae565b606091505b5050905080610a3f576040517f08c379a000000000000000000000000000000000000000000000000000000000815260206004820152603360248201527f556e61626c6520746f2073656e642076616c7565206f7220726563697069656e60448201527f74206d61792068617665207265766572746564000000000000000000000000006064820152608401610727565b50505050610a4d6001606555565b565b610a57613243565b60678190556040805182815263ffffffff421660208201527fed1cca871923c208fe09e815ee672aabe47802b1eadf49ccd290b3f0761f4c789101610685565b610a9f613243565b60408051808201825261ffff83811680835263ffffffff4281166020808601828152606a805460018101825560009190915296517f116fea137db6e131133e7f2bab296045d8f41cc5607279db17b218cab0929a519097018054915190941662010000027fffffffffffffffffffffffffffffffffffffffffffffffffffff00000000000090911696909516959095179390931790558351908152918201527fe5c9a7c0ef56311d105faed8424487d6404de6fa4af9b8ca5209e7f64f2b3c5a9101610685565b610b6e6132c4565b60665460ff1615610c01576040517f08c379a000000000000000000000000000000000000000000000000000000000815260206004820152602960248201527f506c65617365207761697420756e74696c20746865207374616b696e6720697360448201527f20756e70617573656400000000000000000000000000000000000000000000006064820152608401610727565b33610c0a61271f565b821115610c99576040517f08c379a000000000000000000000000000000000000000000000000000000000815260206004820152602260248201527f696e76616c696420756e7374616b696e6720616d6f756e74207370656369666960448201527f65640000000000000000000000000000000000000000000000000000000000006064820152608401610727565b73ffffffffffffffffffffffffffffffffffffffff8116600090815260696020526040812090805b8254821015610dd857600082815260018401602052604081205490819003610ce95750610dc6565b6000610cf58585613337565b9050610d0183826135ac565b6000858152600187016020526040902060020180547fffffffffffffffffffffffffffffffffffffffffffffffffffffffff00000000164263ffffffff16179055925086821115610d6f57610d5682886135b8565b600085815260018701602052604090205550610dd89050565b60008481526001808701602052604082208281559081018290556002810180547fffffffffffffffffffffffffffffffffffffffffffffffffffffffff0000000016905560030155610dc187836135b8565b965050505b81610dd081613970565b925050610cc1565b606b54604080517fa32d2440000000000000000000000000000000000000000000000000000000008152600481018490526024810191909152600760448201527f554e5354414b4500000000000000000000000000000000000000000000000000606482015273ffffffffffffffffffffffffffffffffffffffff9091169063a32d244090608401600060405180830381600087803b158015610e7a57600080fd5b505af1158015610e8e573d6000803e3d6000fd5b505050508085610e9e91906139a8565b471015610f07576040517f08c379a000000000000000000000000000000000000000000000000000000000815260206004820152601d60248201527f436f6e747261637420696e73756666696369656e742062616c616e63650000006044820152606401610727565b3360009081526069602090815260408083208584526001018252918290205482518881524263ffffffff16928101929092528183018590526060820152905173ffffffffffffffffffffffffffffffffffffffff8616917fb6badc3890a1003f1cb56f027d9923dd26e994226161a74c81ef9f8dba407d27919081900360800190a2600073ffffffffffffffffffffffffffffffffffffffff8516610fac83886139a8565b604051600081818185875af1925050503d8060008114610fe8576040519150601f19603f3d011682016040523d82523d6000602084013e610fed565b606091505b505090508061107e576040517f08c379a000000000000000000000000000000000000000000000000000000000815260206004820152602860248201527f4661696c656420746f2073656e64207265776172647320616e64207374616b6560448201527f6420616d6f756e740000000000000000000000000000000000000000000000006064820152608401610727565b505050505061108d6001606555565b50565b6110986132c4565b60665460ff161561112b576040517f08c379a000000000000000000000000000000000000000000000000000000000815260206004820152602960248201527f506c65617365207761697420756e74696c20746865207374616b696e6720697360448201527f20756e70617573656400000000000000000000000000000000000000000000006064820152608401610727565b336000611136613091565b9050600061114261271f565b905060005b73ffffffffffffffffffffffffffffffffffffffff84166000908152606960205260409020548110156111f25773ffffffffffffffffffffffffffffffffffffffff84166000908152606960209081526040808320848452600190810190925282208281559081018290556002810180547fffffffffffffffffffffffffffffffffffffffffffffffffffffffff0000000016905560030155806111ea81613970565b915050611147565b5073ffffffffffffffffffffffffffffffffffffffff83811660009081526069602052604080822091909155606b5481517fa32d2440000000000000000000000000000000000000000000000000000000008152600481018690526024810192909252600760448301527f554e5354414b450000000000000000000000000000000000000000000000000060648301529091169063a32d244090608401600060405180830381600087803b1580156112a957600080fd5b505af11580156112bd573d6000803e3d6000fd5b5050505081816112cd91906139a8565b471015611336576040517f08c379a000000000000000000000000000000000000000000000000000000000815260206004820152601d60248201527f436f6e747261637420696e73756666696369656e742062616c616e63650000006044820152606401610727565b60408051828152602081018490524263ffffffff1681830152905173ffffffffffffffffffffffffffffffffffffffff8516917fa30d955ca5ba601226d9ebe18a1a68516dbd863b85cc2e9653135b91bdba9089919081900360600190a2600073ffffffffffffffffffffffffffffffffffffffff84166113b784846139a8565b604051600081818185875af1925050503d80600081146113f3576040519150601f19603f3d011682016040523d82523d6000602084013e6113f8565b606091505b5050905080610a3f576040517f08c379a000000000000000000000000000000000000000000000000000000000815260206004820152602860248201527f4661696c656420746f2073656e64207265776172647320616e64207374616b6560448201527f6420616d6f756e740000000000000000000000000000000000000000000000006064820152608401610727565b60675434101561151b576040517f08c379a000000000000000000000000000000000000000000000000000000000815260206004820152603460248201527f416d6f756e74206d7573742062652067726561746572207468616e206d696e6960448201527f6d756d2076616c7565204e524b20546f6b656e730000000000000000000000006064820152608401610727565b60665460ff16156115ae576040517f08c379a000000000000000000000000000000000000000000000000000000000815260206004820152602960248201527f506c65617365207761697420756e74696c20746865207374616b696e6720697360448201527f20756e70617573656400000000000000000000000000000000000000000000006064820152608401610727565b336000818152606960209081526040808320805484526001019091529020546115d790346135ac565b73ffffffffffffffffffffffffffffffffffffffff8216600081815260696020818152604080842080548552600181018352818520969096558554845280842060020180547fffffffffffffffffffffffffffffffffffffffffffffffffffffffff00000000164263ffffffff1617905585548085529084206003018190559383525290919061166683613970565b909155505073ffffffffffffffffffffffffffffffffffffffff81166000818152606960205260409020547f310e6030a7043e4b34c1a3baca7b1c6d2b555c5accea7e3896acf109d910d12e90349042906116c3906001906139bb565b6040805193845263ffffffff90921660208401529082015260600160405180910390a250565b336000908152606960205260408120546060918167ffffffffffffffff811115611715576117156139ce565b60405190808252806020026020018201604052801561177757816020015b61176460405180608001604052806000815260200160008152602001600063ffffffff168152602001600081525090565b8152602001906001900390816117335790505b50905060005b828110156118065733600090815260696020908152604080832084845260019081018352928190208151608081018352815481529381015492840192909252600282015463ffffffff169083015260030154606082015282518390839081106117e8576117e86139fd565b602002602001018190525080806117fe90613970565b91505061177d565b5092915050565b6118156132c4565b60665460ff16156118a8576040517f08c379a000000000000000000000000000000000000000000000000000000000815260206004820152602960248201527f506c65617365207761697420756e74696c20746865207374616b696e6720697360448201527f20756e70617573656400000000000000000000000000000000000000000000006064820152608401610727565b33600081815260696020526040812090805b82548210156119a25773ffffffffffffffffffffffffffffffffffffffff84166000908152606960205260408120611910906118f69085613337565b6000858152600180880160205260409091200154906135ac565b905061191c82826135ac565b6000848152600186810160205260408220908101919091556002810180547fffffffffffffffffffffffffffffffffffffffffffffffffffffffff00000000164263ffffffff90811691909117909155905491935061197e919083906135ac16565b6000848152600186016020526040902055508161199a81613970565b9250506118ba565b6040805173ffffffffffffffffffffffffffffffffffffffff86168152602081018390524263ffffffff168183015290517fab870f0e51e18faeefcecf6ad2ab62f3ae4c9dd3d81b2e49b8c24cf468b3e34b9181900360600190a150505050610a4d6001606555565b611a136132c4565b60665460ff1615611aa6576040517f08c379a000000000000000000000000000000000000000000000000000000000815260206004820152602960248201527f506c65617365207761697420756e74696c20746865207374616b696e6720697360448201527f20756e70617573656400000000000000000000000000000000000000000000006064820152608401610727565b3382611b0e576040517f08c379a000000000000000000000000000000000000000000000000000000000815260206004820152600e60248201527f696e76616c696420616d6f756e740000000000000000000000000000000000006044820152606401610727565b73ffffffffffffffffffffffffffffffffffffffff81166000908152606960205260409020611b7f90611b419084613337565b73ffffffffffffffffffffffffffffffffffffffff8316600090815260696020908152604080832087845260019081019092529091200154906135ac565b73ffffffffffffffffffffffffffffffffffffffff82166000908152606960209081526040808320868452600190810190925290912001819055831115611c22576040517f08c379a000000000000000000000000000000000000000000000000000000000815260206004820152601d60248201527f496e73756666696369656e74207265776172647320746f20636c61696d0000006044820152606401610727565b73ffffffffffffffffffffffffffffffffffffffff8116600090815260696020908152604080832085845260019081019092529091200154611c6490846135b8565b73ffffffffffffffffffffffffffffffffffffffff828116600090815260696020908152604080832087845260019081019092529182902090810193909355600290920180547fffffffffffffffffffffffffffffffffffffffffffffffffffffffff00000000164263ffffffff16179055606b5482517fa32d2440000000000000000000000000000000000000000000000000000000008152600481018790526024810193909352600d60448401527f434c41494d2052455741524453000000000000000000000000000000000000006064840152169063a32d244090608401600060405180830381600087803b158015611d5f57600080fd5b505af1158015611d73573d6000803e3d6000fd5b5050505082471015611de1576040517f08c379a000000000000000000000000000000000000000000000000000000000815260206004820152601d60248201527f436f6e747261637420696e73756666696369656e742062616c616e63650000006044820152606401610727565b73ffffffffffffffffffffffffffffffffffffffff8116600081815260696020908152604080832086845260019081018352928190209092015482518781524263ffffffff1692810192909252818301869052606082015290517fef4371d1c51361711b64fc2d1439fcf40f092cf5d9cd350fee214c46bd4493349181900360800190a260008173ffffffffffffffffffffffffffffffffffffffff168460405160006040518083038185875af1925050503d8060008114611ebf576040519150601f19603f3d011682016040523d82523d6000602084013e611ec4565b606091505b5050905080611f55576040517f08c379a000000000000000000000000000000000000000000000000000000000815260206004820152603360248201527f556e61626c6520746f2073656e642076616c7565206f7220726563697069656e60448201527f74206d61792068617665207265766572746564000000000000000000000000006064820152608401610727565b5050611f616001606555565b5050565b611f6d613243565b610a4d60006135c4565b611f7f6132c4565b611f87613243565b81471015611ff1576040517f08c379a000000000000000000000000000000000000000000000000000000000815260206004820152601d60248201527f436f6e747261637420696e73756666696369656e742062616c616e63650000006044820152606401610727565b6000821161205b576040517f08c379a000000000000000000000000000000000000000000000000000000000815260206004820152600e60248201527f696e76616c696420616d6f756e740000000000000000000000000000000000006044820152606401610727565b73ffffffffffffffffffffffffffffffffffffffff81166120d8576040517f08c379a000000000000000000000000000000000000000000000000000000000815260206004820152600f60248201527f696e76616c6964206164647265737300000000000000000000000000000000006044820152606401610727565b6040805183815273ffffffffffffffffffffffffffffffffffffffff831660208201524263ffffffff168183015290517fb5a07b1f4bc2f4ff306ef2ad16fb57d1a54b12930178ff22caa5169642b8ef419181900360600190a160008173ffffffffffffffffffffffffffffffffffffffff168360405160006040518083038185875af1925050503d806000811461218c576040519150601f19603f3d011682016040523d82523d6000602084013e612191565b606091505b5050905080612222576040517f08c379a000000000000000000000000000000000000000000000000000000000815260206004820152603360248201527f556e61626c6520746f2073656e642076616c7565206f7220726563697069656e60448201527f74206d61792068617665207265766572746564000000000000000000000000006064820152608401610727565b50611f616001606555565b6122356132c4565b60665460ff16156122c8576040517f08c379a000000000000000000000000000000000000000000000000000000000815260206004820152602960248201527f506c65617365207761697420756e74696c20746865207374616b696e6720697360448201527f20756e70617573656400000000000000000000000000000000000000000000006064820152608401610727565b81600003612332576040517f08c379a000000000000000000000000000000000000000000000000000000000815260206004820181905260248201527f696e76616c696420756e7374616b6520616d6f756e74207370656369666965646044820152606401610727565b3360008181526069602090815260408083208584526001019091529020548311156123b9576040517f08c379a000000000000000000000000000000000000000000000000000000000815260206004820152601a60248201527f496e73756666696369656e74207374616b656420616d6f756e740000000000006044820152606401610727565b73ffffffffffffffffffffffffffffffffffffffff811660009081526069602052604081206123e89084613337565b73ffffffffffffffffffffffffffffffffffffffff831660009081526069602090815260408083208784526001019091528120549192509061242a90866135b8565b73ffffffffffffffffffffffffffffffffffffffff848116600090815260696020908152604080832089845260019081019092528083208581556002810180547fffffffffffffffffffffffffffffffffffffffffffffffffffffffff00000000164263ffffffff1617905590910191909155606b5481517fa32d2440000000000000000000000000000000000000000000000000000000008152600481018790526024810192909252600760448301527f554e5354414b4500000000000000000000000000000000000000000000000000606483015292935091169063a32d244090608401600060405180830381600087803b15801561252a57600080fd5b505af115801561253e573d6000803e3d6000fd5b50505050818561254e91906139a8565b4710156125b7576040517f08c379a000000000000000000000000000000000000000000000000000000000815260206004820152601d60248201527f436f6e747261637420696e73756666696369656e742062616c616e63650000006044820152606401610727565b6040805186815263ffffffff421660208201529081018590526060810183905273ffffffffffffffffffffffffffffffffffffffff8416907f51804bb2b3da65274a49967fe77f4fd4c1b4241593ac270162ca058ac640e8fc9060800160405180910390a2600073ffffffffffffffffffffffffffffffffffffffff841661263f84886139a8565b604051600081818185875af1925050503d806000811461267b576040519150601f19603f3d011682016040523d82523d6000602084013e612680565b606091505b5050905080612711576040517f08c379a000000000000000000000000000000000000000000000000000000000815260206004820152603360248201527f556e61626c6520746f2073656e642076616c7565206f7220726563697069656e60448201527f74206d61792068617665207265766572746564000000000000000000000000006064820152608401610727565b50505050611f616001606555565b336000908152606960205260408120815b815481101561276857600081815260018301602052604090205461275490846139a8565b92508061276081613970565b915050612730565b505090565b6127756132c4565b60665460ff1615612808576040517f08c379a000000000000000000000000000000000000000000000000000000000815260206004820152602960248201527f506c65617365207761697420756e74696c20746865207374616b696e6720697360448201527f20756e70617573656400000000000000000000000000000000000000000000006064820152608401610727565b33600081815260696020526040902061282590611b419084613337565b73ffffffffffffffffffffffffffffffffffffffff821660009081526069602090815260408083208684526001908101909252909120018190558311156128c8576040517f08c379a000000000000000000000000000000000000000000000000000000000815260206004820152601f60248201527f496e73756666696369656e74207265776172647320746f2072657374616b65006044820152606401610727565b73ffffffffffffffffffffffffffffffffffffffff8116600090815260696020908152604080832085845260010190915281205461290690856135ac565b73ffffffffffffffffffffffffffffffffffffffff8316600090815260696020908152604080832087845260019081019092529091208281556002810180547fffffffffffffffffffffffffffffffffffffffffffffffffffffffff00000000164263ffffffff9081169190911790915591015491925061298a919086906135b816565b73ffffffffffffffffffffffffffffffffffffffff831660008181526069602090815260408083208884526001908101835292819020909201849055815188815263ffffffff4216918101919091529081018690526060810192909252907ff0a5ef65bc0c4bbcb78c74184316d28baa113174b9d06f4a2574a1a81509af2e9060800160405180910390a25050611f616001606555565b612a296132c4565b60665460ff1615612abc576040517f08c379a000000000000000000000000000000000000000000000000000000000815260206004820152602960248201527f506c65617365207761697420756e74696c20746865207374616b696e6720697360448201527f20756e70617573656400000000000000000000000000000000000000000000006064820152608401610727565b336000612ac7613091565b905080831115612b59576040517f08c379a000000000000000000000000000000000000000000000000000000000815260206004820152602660248201527f696e76616c696420616d6f756e742073706563696669656420666f722072657360448201527f74616b696e6700000000000000000000000000000000000000000000000000006064820152608401610727565b73ffffffffffffffffffffffffffffffffffffffff82166000908152606960205260408120905b8154811015612cff5773ffffffffffffffffffffffffffffffffffffffff84166000908152606960205260408120612bd690612bbc9084613337565b6000848152600180870160205260409091200154906135ac565b60008381526001858101602052604090912090810182905560020180547fffffffffffffffffffffffffffffffffffffffffffffffffffffffff00000000164263ffffffff16179055905085811115612cac576000828152600184016020526040902054612c4490876135ac565b60008381526001808601602090815260408084209490945573ffffffffffffffffffffffffffffffffffffffff8916835260698152838320868452820190529190200154612c9290876135b8565b600083815260018086016020526040909120015550612cff565b6000828152600184016020526040902054612cc790826135ac565b60008381526001808601602052604082209283559190910155612cea86826135b8565b95505080612cf781613970565b915050612b80565b600081815260018084016020526040918290200154905173ffffffffffffffffffffffffffffffffffffffff8616917ff0a5ef65bc0c4bbcb78c74184316d28baa113174b9d06f4a2574a1a81509af2e91612d7b9189914291879193845263ffffffff9290921660208401526040830152606082015260800190565b60405180910390a25050505061108d6001606555565b600054610100900460ff1615808015612db15750600054600160ff909116105b80612dcb5750303b158015612dcb575060005460ff166001145b612e57576040517f08c379a000000000000000000000000000000000000000000000000000000000815260206004820152602e60248201527f496e697469616c697a61626c653a20636f6e747261637420697320616c72656160448201527f647920696e697469616c697a65640000000000000000000000000000000000006064820152608401610727565b600080547fffffffffffffffffffffffffffffffffffffffffffffffffffffffffffffff001660011790558015612eb557600080547fffffffffffffffffffffffffffffffffffffffffffffffffffffffffffff00ff166101001790555b6040805180820190915261ffff808816825263ffffffff42811660208401908152606a805460018101825560009190915293517f116fea137db6e131133e7f2bab296045d8f41cc5607279db17b218cab0929a519094018054915190921662010000027fffffffffffffffffffffffffffffffffffffffffffffffffffff000000000000909116939092169290921717905560678590556068849055606b805473ffffffffffffffffffffffffffffffffffffffff85167fffffffffffffffffffffffff0000000000000000000000000000000000000000909116179055612f9b61363b565b612fa48261310e565b801561300757600080547fffffffffffffffffffffffffffffffffffffffffffffffffffffffffffff00ff169055604051600181527f7f26b83ff96e1f2b6a682f133852f6798a09c465da95921460cefb38474024989060200160405180910390a15b505050505050565b613017613243565b606680547fffffffffffffffffffffffffffffffffffffffffffffffffffffffffffffff0016911515919091179055565b33600081815260696020818152604080842086855260018082018452918520909101549484529190529091829161308a91906130849086613337565b906135ac565b9392505050565b336000908152606960205260408120548190815b818110156130d4576130b681613048565b6130c090846139a8565b9250806130cc81613970565b9150506130a5565b509092915050565b606a81815481106130ec57600080fd5b60009182526020909120015461ffff8116915062010000900463ffffffff1682565b613116613243565b73ffffffffffffffffffffffffffffffffffffffff81166131b9576040517f08c379a000000000000000000000000000000000000000000000000000000000815260206004820152602660248201527f4f776e61626c653a206e6577206f776e657220697320746865207a65726f206160448201527f64647265737300000000000000000000000000000000000000000000000000006064820152608401610727565b61108d816135c4565b6131ca613243565b60688190556040805182815263ffffffff421660208201527f3a99a5d68ef44398d05e5cca16bfeac8117edf32a7f267449172a9495422b87f9101610685565b606a80546000919061321e906001906139bb565b8154811061322e5761322e6139fd565b60009182526020909120015461ffff16919050565b60335473ffffffffffffffffffffffffffffffffffffffff163314610a4d576040517f08c379a000000000000000000000000000000000000000000000000000000000815260206004820181905260248201527f4f776e61626c653a2063616c6c6572206973206e6f7420746865206f776e65726044820152606401610727565b600260655403613330576040517f08c379a000000000000000000000000000000000000000000000000000000000815260206004820152601f60248201527f5265656e7472616e637947756172643a207265656e7472616e742063616c6c006044820152606401610727565b6002606555565b600081815260018084016020526040822060028101549054606a548493849363ffffffff1692919081111561356d5760005b818110156133c057606a8181548110613384576133846139fd565b60009182526020909120015463ffffffff620100009091048116908516116133ae578095506133c0565b806133b881613970565b915050613369565b508460000361343e576068546133d890612710613a2c565b6134286133eb63ffffffff8616426139bb565b613422606a6133fb6001876139bb565b8154811061340b5761340b6139fd565b600091825260209091200154869061ffff166136da565b906136da565b6134329190613a43565b955050505050506135a6565b845b8181101561352957600060685461271061345a9190613a2c565b6134d086606a8581548110613471576134716139fd565b600091825260209091200154613493919062010000900463ffffffff16613a7e565b63ffffffff16613422606a6134a96001886139bb565b815481106134b9576134b96139fd565b600091825260209091200154889061ffff166136da565b6134da9190613a43565b90506134e681876139a8565b9550606a82815481106134fb576134fb6139fd565b60009182526020909120015462010000900463ffffffff16945081905061352181613970565b915050613440565b5060685461353990612710613a2c565b61354c6133eb63ffffffff8616426139bb565b6135569190613a43565b61356090856139a8565b95506135a6945050505050565b60685461357c90612710613a2c565b61342861358f63ffffffff8616426139bb565b613422606a60008154811061340b5761340b6139fd565b92915050565b600061308a82846139a8565b600061308a82846139bb565b6033805473ffffffffffffffffffffffffffffffffffffffff8381167fffffffffffffffffffffffff0000000000000000000000000000000000000000831681179093556040519116919082907f8be0079c531659141344cd1fd0a4f28419497f9722a3daafe3b4186f6b6457e090600090a35050565b600054610100900460ff166136d2576040517f08c379a000000000000000000000000000000000000000000000000000000000815260206004820152602b60248201527f496e697469616c697a61626c653a20636f6e7472616374206973206e6f74206960448201527f6e697469616c697a696e670000000000000000000000000000000000000000006064820152608401610727565b610a4d6136e6565b600061308a8284613a2c565b600054610100900460ff1661377d576040517f08c379a000000000000000000000000000000000000000000000000000000000815260206004820152602b60248201527f496e697469616c697a61626c653a20636f6e7472616374206973206e6f74206960448201527f6e697469616c697a696e670000000000000000000000000000000000000000006064820152608401610727565b610a4d336135c4565b803573ffffffffffffffffffffffffffffffffffffffff811681146137aa57600080fd5b919050565b6000602082840312156137c157600080fd5b61308a82613786565b6000602082840312156137dc57600080fd5b5035919050565b803561ffff811681146137aa57600080fd5b60006020828403121561380757600080fd5b61308a826137e3565b602080825282518282018190526000919060409081850190868401855b8281101561386d5781518051855286810151878601528581015163ffffffff1686860152606090810151908501526080909301929085019060010161382d565b5091979650505050505050565b6000806040838503121561388d57600080fd5b50508035926020909101359150565b600080604083850312156138af57600080fd5b823591506138bf60208401613786565b90509250929050565b600080600080600060a086880312156138e057600080fd5b6138e9866137e3565b9450602086013593506040860135925061390560608701613786565b915061391360808701613786565b90509295509295909350565b60006020828403121561393157600080fd5b8135801515811461308a57600080fd5b7f4e487b7100000000000000000000000000000000000000000000000000000000600052601160045260246000fd5b60007fffffffffffffffffffffffffffffffffffffffffffffffffffffffffffffffff82036139a1576139a1613941565b5060010190565b808201808211156135a6576135a6613941565b818103818111156135a6576135a6613941565b7f4e487b7100000000000000000000000000000000000000000000000000000000600052604160045260246000fd5b7f4e487b7100000000000000000000000000000000000000000000000000000000600052603260045260246000fd5b80820281158282048414176135a6576135a6613941565b600082613a79577f4e487b7100000000000000000000000000000000000000000000000000000000600052601260045260246000fd5b500490565b63ffffffff8281168282160390808211156118065761180661394156fea2646970667358221220b4c10e875dd916f962401f206fc3ac63a77158c2694e0624234b3db39fb52db864736f6c63430008150033",
    "linkReferences": {}
  },
  "methodIdentifiers": {
    "apy(uint256)": "e75ac809",
    "claimAllRewards()": "0b83a727",
    "claimRewards(uint256,uint256)": "594dd432",
    "frequency()": "ead50da3",
    "getCurrentApy()": "f4925de5",
    "getTotalRewards()": "e627f2db",
    "getUserRewards(uint256)": "e1a9a6dd",
    "getUserStake(uint256)": "a9d48b43",
    "getUserStakesInfo()": "3ddfa45c",
    "getUserTotalStakes()": "acf3500a",
    "initialize(uint16,uint256,uint256,address,address)": "bf23f103",
    "liquidityPool()": "665a11ca",
    "migration(uint256,address)": "8c6f3349",
    "minimumStake()": "ec5ffac2",
    "owner()": "8da5cb5b",
    "pause()": "8456cb59",
    "renounceOwnership()": "715018a6",
    "restake(uint256)": "bce1b520",
    "restake(uint256,uint256)": "b8e7023d",
    "restakeAll()": "3e19e8c1",
    "setAPY(uint16)": "24b3f698",
    "setFrequency(uint256)": "f426f03a",
    "setLiquidityPool(address)": "01877020",
    "setMinimumStake(uint256)": "233e9903",
    "stake()": "3a4b66f1",
    "stakes(address)": "16934fc4",
    "transferOwnership(address)": "f2fde38b",
    "unstake(uint256)": "2e17de78",
    "unstake(uint256,uint256)": "9e2c8a5b",
    "unstakeAll()": "35322f37",
    "updateStakingPause(bool)": "df2982de"
  },
  "id": 4
}