{"abi":[{"type":"fallback","stateMutability":"payable"},{"type":"receive","stateMutability":"payable"},{"type":"function","name":"apy","inputs":[{"name":"","type":"uint256","internalType":"uint256"}],"outputs":[{"name":"value","type":"uint16","internalType":"uint16"},{"name":"changeTime","type":"uint32","internalType":"uint32"}],"stateMutability":"view"},{"type":"function","name":"claimAllRewards","inputs":[],"outputs":[],"stateMutability":"nonpayable"},{"type":"function","name":"claimRewards","inputs":[{"name":"_rewardAmount","type":"uint256","internalType":"uint256"},{"name":"_slotId","type":"uint256","internalType":"uint256"}],"outputs":[],"stateMutability":"nonpayable"},{"type":"function","name":"frequency","inputs":[],"outputs":[{"name":"","type":"uint256","internalType":"uint256"}],"stateMutability":"view"},{"type":"function","name":"getCurrentApy","inputs":[],"outputs":[{"name":"","type":"uint256","internalType":"uint256"}],"stateMutability":"view"},{"type":"function","name":"getTotalRewards","inputs":[],"outputs":[{"name":"","type":"uint256","internalType":"uint256"}],"stateMutability":"view"},{"type":"function","name":"getUserRewards","inputs":[{"name":"_slotId","type":"uint256","internalType":"uint256"}],"outputs":[{"name":"","type":"uint256","internalType":"uint256"}],"stateMutability":"view"},{"type":"function","name":"getUserStake","inputs":[{"name":"_slotId","type":"uint256","internalType":"uint256"}],"outputs":[{"name":"amount","type":"uint256","internalType":"uint256"},{"name":"startTime","type":"uint32","internalType":"uint32"}],"stateMutability":"view"},{"type":"function","name":"getUserStakesInfo","inputs":[],"outputs":[{"name":"","type":"tuple[]","internalType":"struct StakingContract.Slot[]","components":[{"name":"amount","type":"uint256","internalType":"uint256"},{"name":"rewards","type":"uint256","internalType":"uint256"},{"name":"startTime","type":"uint32","internalType":"uint32"},{"name":"id","type":"uint256","internalType":"uint256"}]}],"stateMutability":"view"},{"type":"function","name":"getUserTotalStakes","inputs":[],"outputs":[{"name":"amount","type":"uint256","internalType":"uint256"}],"stateMutability":"view"},{"type":"function","name":"initialize","inputs":[{"name":"_apy","type":"uint16","internalType":"uint16"},{"name":"_minimumStake","type":"uint256","internalType":"uint256"},{"name":"_frequency","type":"uint256","internalType":"uint256"},{"name":"_liquidityPool","type":"address","internalType":"address"},{"name":"_owner","type":"address","internalType":"address"}],"outputs":[],"stateMutability":"nonpayable"},{"type":"function","name":"liquidityPool","inputs":[],"outputs":[{"name":"","type":"address","internalType":"contract ILiquidityPool"}],"stateMutability":"view"},{"type":"function","name":"migration","inputs":[{"name":"amount","type":"uint256","internalType":"uint256"},{"name":"newAddress","type":"address","internalType":"address"}],"outputs":[],"stateMutability":"nonpayable"},{"type":"function","name":"minimumStake","inputs":[],"outputs":[{"name":"","type":"uint256","internalType":"uint256"}],"stateMutability":"view"},{"type":"function","name":"owner","inputs":[],"outputs":[{"name":"","type":"address","internalType":"address"}],"stateMutability":"view"},{"type":"function","name":"pause","inputs":[],"outputs":[{"name":"","type":"bool","internalType":"bool"}],"stateMutability":"view"},{"type":"function","name":"renounceOwnership","inputs":[],"outputs":[],"stateMutability":"nonpayable"},{"type":"function","name":"restake","inputs":[{"name":"_amount","type":"uint256","internalType":"uint256"},{"name":"_slotId","type":"uint256","internalType":"uint256"}],"outputs":[],"stateMutability":"nonpayable"},{"type":"function","name":"restake","inputs":[{"name":"amount","type":"uint256","internalType":"uint256"}],"outputs":[],"stateMutability":"nonpayable"},{"type":"function","name":"restakeAll","inputs":[],"outputs":[],"stateMutability":"nonpayable"},{"type":"function","name":"setAPY","inputs":[{"name":"_newAPY","type":"uint16","internalType":"uint16"}],"outputs":[],"stateMutability":"nonpayable"},{"type":"function","name":"setFrequency","inputs":[{"name":"_frequency","type":"uint256","internalType":"uint256"}],"outputs":[],"stateMutability":"nonpayable"},{"type":"function","name":"setLiquidityPool","inputs":[{"name":"_liquidityPool","type":"address","internalType":"address"}],"outputs":[],"stateMutability":"nonpayable"},{"type":"function","name":"setMinimumStake","inputs":[{"name":"_newMinimumStake","type":"uint256","internalType":"uint256"}],"outputs":[],"stateMutability":"nonpayable"},{"type":"function","name":"stake","inputs":[],"outputs":[],"stateMutability":"payable"},{"type":"function","name":"stakes","inputs":[{"name":"","type":"address","internalType":"address"}],"outputs":[{"name":"counter","type":"uint256","internalType":"uint256"}],"stateMutability":"view"},{"type":"function","name":"transferOwnership","inputs":[{"name":"newOwner","type":"address","internalType":"address"}],"outputs":[],"stateMutability":"nonpayable"},{"type":"function","name":"unstake","inputs":[{"name":"amount","type":"uint256","internalType":"uint256"}],"outputs":[],"stateMutability":"nonpayable"},{"type":"function","name":"unstake","inputs":[{"name":"_amount","type":"uint256","internalType":"uint256"},{"name":"_slotId","type":"uint256","internalType":"uint256"}],"outputs":[],"stateMutability":"nonpayable"},{"type":"function","name":"unstakeAll","inputs":[],"outputs":[],"stateMutability":"nonpayable"},{"type":"function","name":"updateStakingPause","inputs":[{"name":"_pause","type":"bool","internalType":"bool"}],"outputs":[],"stateMutability":"nonpayable"},{"type":"event","name":"AllRewardClaimed","inputs":[{"name":"user","type":"address","indexed":true,"internalType":"address"},{"name":"totalReward","type":"uint256","indexed":false,"internalType":"uint256"},{"name":"timeOfClaim","type":"uint32","indexed":false,"internalType":"uint32"}],"anonymous":false},{"type":"event","name":"AmountMigrated","inputs":[{"name":"amount","type":"uint256","indexed":false,"internalType":"uint256"},{"name":"newAddress","type":"address","indexed":false,"internalType":"address"},{"name":"migrationTime","type":"uint32","indexed":false,"internalType":"uint32"}],"anonymous":false},{"type":"event","name":"ApyUpdated","inputs":[{"name":"apy","type":"uint256","indexed":false,"internalType":"uint256"},{"name":"timeStamp","type":"uint32","indexed":false,"internalType":"uint32"}],"anonymous":false},{"type":"event","name":"FrequencyUpdated","inputs":[{"name":"frequency","type":"uint256","indexed":false,"internalType":"uint256"},{"name":"timeStamp","type":"uint32","indexed":false,"internalType":"uint32"}],"anonymous":false},{"type":"event","name":"Initialized","inputs":[{"name":"version","type":"uint8","indexed":false,"internalType":"uint8"}],"anonymous":false},{"type":"event","name":"LiquidityPoolUpdated","inputs":[{"name":"newPool","type":"address","indexed":false,"internalType":"address"},{"name":"timeStamp","type":"uint32","indexed":false,"internalType":"uint32"}],"anonymous":false},{"type":"event","name":"MinimumStakeUpdated","inputs":[{"name":"minimumStake","type":"uint256","indexed":false,"internalType":"uint256"},{"name":"timeStamp","type":"uint32","indexed":false,"internalType":"uint32"}],"anonymous":false},{"type":"event","name":"OwnershipTransferred","inputs":[{"name":"previousOwner","type":"address","indexed":true,"internalType":"address"},{"name":"newOwner","type":"address","indexed":true,"internalType":"address"}],"anonymous":false},{"type":"event","name":"ReStaked","inputs":[{"name":"user","type":"address","indexed":true,"internalType":"address"},{"name":"amount","type":"uint256","indexed":false,"internalType":"uint256"},{"name":"stakeTime","type":"uint32","indexed":false,"internalType":"uint32"},{"name":"slotId","type":"uint256","indexed":false,"internalType":"uint256"},{"name":"rewardsLeft","type":"uint256","indexed":false,"internalType":"uint256"}],"anonymous":false},{"type":"event","name":"RestakedAll","inputs":[{"name":"user","type":"address","indexed":false,"internalType":"address"},{"name":"restakedAmount","type":"uint256","indexed":false,"internalType":"uint256"},{"name":"timeStamp","type":"uint32","indexed":false,"internalType":"uint32"}],"anonymous":false},{"type":"event","name":"RewardClaimed","inputs":[{"name":"user","type":"address","indexed":true,"internalType":"address"},{"name":"totalReward","type":"uint256","indexed":false,"internalType":"uint256"},{"name":"timeOfClaim","type":"uint32","indexed":false,"internalType":"uint32"},{"name":"slotId","type":"uint256","indexed":false,"internalType":"uint256"},{"name":"rewardsLeft","type":"uint256","indexed":false,"internalType":"uint256"}],"anonymous":false},{"type":"event","name":"Staked","inputs":[{"name":"user","type":"address","indexed":true,"internalType":"address"},{"name":"amount","type":"uint256","indexed":false,"internalType":"uint256"},{"name":"stakeTime","type":"uint32","indexed":false,"internalType":"uint32"},{"name":"slotId","type":"uint256","indexed":false,"internalType":"uint256"}],"anonymous":false},{"type":"event","name":"Unstaked","inputs":[{"name":"user","type":"address","indexed":true,"internalType":"address"},{"name":"amount","type":"uint256","indexed":false,"internalType":"uint256"},{"name":"unstakeTime","type":"uint32","indexed":false,"internalType":"uint32"},{"name":"slotid","type":"uint256","indexed":false,"internalType":"uint256"},{"name":"rewards","type":"uint256","indexed":false,"internalType":"uint256"}],"anonymous":false},{"type":"event","name":"UnstakedAllTokens","inputs":[{"name":"user","type":"address","indexed":true,"internalType":"address"},{"name":"totalAmount","type":"uint256","indexed":false,"internalType":"uint256"},{"name":"rewards","type":"uint256","indexed":false,"internalType":"uint256"},{"name":"unstakeTime","type":"uint32","indexed":false,"internalType":"uint32"}],"anonymous":false},{"type":"event","name":"UnstakedTokens","inputs":[{"name":"user","type":"address","indexed":true,"internalType":"address"},{"name":"amount","type":"uint256","indexed":false,"internalType":"uint256"},{"name":"unstakeTime","type":"uint32","indexed":false,"internalType":"uint32"},{"name":"_slotId","type":"uint256","indexed":false,"internalType":"uint256"},{"name":"rewardsLeft","type":"uint256","indexed":false,"internalType":"uint256"}],"anonymous":false}],"bytecode":{"object":"0x608060405234801561001057600080fd5b506001606555613a75806100256000396000f3fe6080604052600436106101c45760003560e01c80638da5cb5b116100f6578063e1a9a6dd1161008f578063ec5ffac211610061578063ec5ffac214610598578063f2fde38b146105ae578063f426f03a146105ce578063f4925de5146105ee57005b8063e1a9a6dd1461050e578063e627f2db1461052e578063e75ac80914610543578063ead50da31461058257005b8063b8e7023d116100c8578063b8e7023d1461048e578063bce1b520146104ae578063bf23f103146104ce578063df2982de146104ee57005b80638da5cb5b146103c75780639e2c8a5b146103f2578063a9d48b4314610412578063acf3500a1461047957005b80633a4b66f111610168578063665a11ca1161013a578063665a11ca14610316578063715018a6146103685780638456cb591461037d5780638c6f3349146103a757005b80633a4b66f1146102b75780633ddfa45c146102bf5780633e19e8c1146102e1578063594dd432146102f657005b8063233e9903116101a1578063233e99031461024257806324b3f698146102625780632e17de781461028257806335322f37146102a257005b806301877020146101cd5780630b83a727146101ed57806316934fc41461020257005b366101cb57005b005b3480156101d957600080fd5b506101cb6101e8366004613753565b610603565b3480156101f957600080fd5b506101cb610690565b34801561020e57600080fd5b5061022f61021d366004613753565b60696020526000908152604090205481565b6040519081526020015b60405180910390f35b34801561024e57600080fd5b506101cb61025d36600461376e565b610a45565b34801561026e57600080fd5b506101cb61027d366004613799565b610a8d565b34801561028e57600080fd5b506101cb61029d36600461376e565b610b5c565b3480156102ae57600080fd5b506101cb61107f565b6101cb61146f565b3480156102cb57600080fd5b506102d46116cf565b60405161023991906137b4565b3480156102ed57600080fd5b506101cb6117e8565b34801561030257600080fd5b506101cb61031136600461381e565b6119e2565b34801561032257600080fd5b50606b546103439073ffffffffffffffffffffffffffffffffffffffff1681565b60405173ffffffffffffffffffffffffffffffffffffffff9091168152602001610239565b34801561037457600080fd5b506101cb611f3c565b34801561038957600080fd5b506066546103979060ff1681565b6040519015158152602001610239565b3480156103b357600080fd5b506101cb6103c2366004613840565b611f4e565b3480156103d357600080fd5b5060335473ffffffffffffffffffffffffffffffffffffffff16610343565b3480156103fe57600080fd5b506101cb61040d36600461381e565b612204565b34801561041e57600080fd5b5061045f61042d36600461376e565b33600090815260696020908152604080832093835260019093019052208054600290910154909163ffffffff90911690565b6040805192835263ffffffff909116602083015201610239565b34801561048557600080fd5b5061022f6126f6565b34801561049a57600080fd5b506101cb6104a936600461381e565b61273a565b3480156104ba57600080fd5b506101cb6104c936600461376e565b6129ee565b3480156104da57600080fd5b506101cb6104e936600461386c565b612d54565b3480156104fa57600080fd5b506101cb6105093660046138c3565b612fd2565b34801561051a57600080fd5b5061022f61052936600461376e565b61300b565b34801561053a57600080fd5b5061022f613054565b34801561054f57600080fd5b5061056361055e36600461376e565b613095565b6040805161ffff909316835263ffffffff909116602083015201610239565b34801561058e57600080fd5b5061022f60685481565b3480156105a457600080fd5b5061022f60675481565b3480156105ba57600080fd5b506101cb6105c9366004613753565b6130c7565b3480156105da57600080fd5b506101cb6105e936600461376e565b61317b565b3480156105fa57600080fd5b5061022f6131c3565b61060b6131fc565b606b80547fffffffffffffffffffffffff00000000000000000000000000000000000000001673ffffffffffffffffffffffffffffffffffffffff83169081179091556040805191825263ffffffff421660208301527fc049d8d166ee43e6f237fb316263f0bad5585764d9661bb6877faec9c39634b891015b60405180910390a150565b61069861327d565b60665460ff1615610730576040517f08c379a000000000000000000000000000000000000000000000000000000000815260206004820152602960248201527f506c65617365207761697420756e74696c20746865207374616b696e6720697360448201527f20756e706175736564000000000000000000000000000000000000000000000060648201526084015b60405180910390fd5b33600081815260696020526040812054919061074a613054565b606b54604080517fa32d2440000000000000000000000000000000000000000000000000000000008152600481018490526024810191909152601160448201527f434c41494d20414c4c2052455741524453000000000000000000000000000000606482015291925073ffffffffffffffffffffffffffffffffffffffff169063a32d244090608401600060405180830381600087803b1580156107ed57600080fd5b505af1158015610801573d6000803e3d6000fd5b5050505080471161086e576040517f08c379a000000000000000000000000000000000000000000000000000000000815260206004820152601d60248201527f436f6e747261637420696e73756666696369656e742062616c616e63650000006044820152606401610727565b60005b838110156108ee5773ffffffffffffffffffffffffffffffffffffffff831660009081526069602090815260408083208484526001908101909252822080820192909255600290910180547fffffffffffffffffffffffffffffffffffffffffffffffffffffffff00000000164263ffffffff1617905501610871565b506040805182815263ffffffff4216602082015273ffffffffffffffffffffffffffffffffffffffff8416917fdb5eaf202904eee4b972abb0521f59d3eeef087208a2407e428687c4e49fa806910160405180910390a260008273ffffffffffffffffffffffffffffffffffffffff168260405160006040518083038185875af1925050503d806000811461099f576040519150601f19603f3d011682016040523d82523d6000602084013e6109a4565b606091505b5050905080610a35576040517f08c379a000000000000000000000000000000000000000000000000000000000815260206004820152603360248201527f556e61626c6520746f2073656e642076616c7565206f7220726563697069656e60448201527f74206d61792068617665207265766572746564000000000000000000000000006064820152608401610727565b50505050610a436001606555565b565b610a4d6131fc565b60678190556040805182815263ffffffff421660208201527fed1cca871923c208fe09e815ee672aabe47802b1eadf49ccd290b3f0761f4c789101610685565b610a956131fc565b60408051808201825261ffff83811680835263ffffffff4281166020808601828152606a805460018101825560009190915296517f116fea137db6e131133e7f2bab296045d8f41cc5607279db17b218cab0929a519097018054915190941662010000027fffffffffffffffffffffffffffffffffffffffffffffffffffff00000000000090911696909516959095179390931790558351908152918201527fe5c9a7c0ef56311d105faed8424487d6404de6fa4af9b8ca5209e7f64f2b3c5a9101610685565b610b6461327d565b60665460ff1615610bf7576040517f08c379a000000000000000000000000000000000000000000000000000000000815260206004820152602960248201527f506c65617365207761697420756e74696c20746865207374616b696e6720697360448201527f20756e70617573656400000000000000000000000000000000000000000000006064820152608401610727565b33610c006126f6565b821115610c8f576040517f08c379a000000000000000000000000000000000000000000000000000000000815260206004820152602260248201527f696e76616c696420756e7374616b696e6720616d6f756e74207370656369666960448201527f65640000000000000000000000000000000000000000000000000000000000006064820152608401610727565b73ffffffffffffffffffffffffffffffffffffffff8116600090815260696020526040812090805b8254821015610dc757600082815260018401602052604081205490819003610cdf5750610dbc565b6000610ceb85856132f0565b9050610cf78382613550565b6000858152600187016020526040902060020180547fffffffffffffffffffffffffffffffffffffffffffffffffffffffff00000000164263ffffffff16179055925086821115610d6557610d4c828861355c565b600085815260018701602052604090205550610dc79050565b60008481526001808701602052604082208281559081018290556002810180547fffffffffffffffffffffffffffffffffffffffffffffffffffffffff0000000016905560030155610db7878361355c565b965050505b600190910190610cb7565b606b54604080517fa32d2440000000000000000000000000000000000000000000000000000000008152600481018490526024810191909152600760448201527f554e5354414b4500000000000000000000000000000000000000000000000000606482015273ffffffffffffffffffffffffffffffffffffffff9091169063a32d244090608401600060405180830381600087803b158015610e6957600080fd5b505af1158015610e7d573d6000803e3d6000fd5b505050508085610e8d9190613914565b471015610ef6576040517f08c379a000000000000000000000000000000000000000000000000000000000815260206004820152601d60248201527f436f6e747261637420696e73756666696369656e742062616c616e63650000006044820152606401610727565b3360009081526069602090815260408083208584526001018252918290205482518881524263ffffffff16928101929092528183018590526060820152905173ffffffffffffffffffffffffffffffffffffffff8616917fb6badc3890a1003f1cb56f027d9923dd26e994226161a74c81ef9f8dba407d27919081900360800190a2600073ffffffffffffffffffffffffffffffffffffffff8516610f9b8388613914565b604051600081818185875af1925050503d8060008114610fd7576040519150601f19603f3d011682016040523d82523d6000602084013e610fdc565b606091505b505090508061106d576040517f08c379a000000000000000000000000000000000000000000000000000000000815260206004820152602860248201527f4661696c656420746f2073656e64207265776172647320616e64207374616b6560448201527f6420616d6f756e740000000000000000000000000000000000000000000000006064820152608401610727565b505050505061107c6001606555565b50565b61108761327d565b60665460ff161561111a576040517f08c379a000000000000000000000000000000000000000000000000000000000815260206004820152602960248201527f506c65617365207761697420756e74696c20746865207374616b696e6720697360448201527f20756e70617573656400000000000000000000000000000000000000000000006064820152608401610727565b336000611125613054565b905060006111316126f6565b905060005b73ffffffffffffffffffffffffffffffffffffffff84166000908152606960205260409020548110156111d85773ffffffffffffffffffffffffffffffffffffffff84166000908152606960209081526040808320848452600190810190925282208281558082018390556002810180547fffffffffffffffffffffffffffffffffffffffffffffffffffffffff000000001690556003019190915501611136565b5073ffffffffffffffffffffffffffffffffffffffff83811660009081526069602052604080822091909155606b5481517fa32d2440000000000000000000000000000000000000000000000000000000008152600481018690526024810192909252600760448301527f554e5354414b450000000000000000000000000000000000000000000000000060648301529091169063a32d244090608401600060405180830381600087803b15801561128f57600080fd5b505af11580156112a3573d6000803e3d6000fd5b5050505081816112b39190613914565b47101561131c576040517f08c379a000000000000000000000000000000000000000000000000000000000815260206004820152601d60248201527f436f6e747261637420696e73756666696369656e742062616c616e63650000006044820152606401610727565b60408051828152602081018490524263ffffffff1681830152905173ffffffffffffffffffffffffffffffffffffffff8516917fa30d955ca5ba601226d9ebe18a1a68516dbd863b85cc2e9653135b91bdba9089919081900360600190a2600073ffffffffffffffffffffffffffffffffffffffff841661139d8484613914565b604051600081818185875af1925050503d80600081146113d9576040519150601f19603f3d011682016040523d82523d6000602084013e6113de565b606091505b5050905080610a35576040517f08c379a000000000000000000000000000000000000000000000000000000000815260206004820152602860248201527f4661696c656420746f2073656e64207265776172647320616e64207374616b6560448201527f6420616d6f756e740000000000000000000000000000000000000000000000006064820152608401610727565b606754341015611501576040517f08c379a000000000000000000000000000000000000000000000000000000000815260206004820152603460248201527f416d6f756e74206d7573742062652067726561746572207468616e206d696e6960448201527f6d756d2076616c7565204e524b20546f6b656e730000000000000000000000006064820152608401610727565b60665460ff1615611594576040517f08c379a000000000000000000000000000000000000000000000000000000000815260206004820152602960248201527f506c65617365207761697420756e74696c20746865207374616b696e6720697360448201527f20756e70617573656400000000000000000000000000000000000000000000006064820152608401610727565b336000818152606960209081526040808320805484526001019091529020546115bd9034613550565b73ffffffffffffffffffffffffffffffffffffffff8216600081815260696020818152604080842080548552600181018352818520969096558554845280842060020180547fffffffffffffffffffffffffffffffffffffffffffffffffffffffff00000000164263ffffffff1617905585548085529084206003018190559383525290919061164c83613927565b909155505073ffffffffffffffffffffffffffffffffffffffff81166000818152606960205260409020547f310e6030a7043e4b34c1a3baca7b1c6d2b555c5accea7e3896acf109d910d12e90349042906116a99060019061395f565b6040805193845263ffffffff90921660208401529082015260600160405180910390a250565b336000908152606960205260408120546060918167ffffffffffffffff8111156116fb576116fb613972565b60405190808252806020026020018201604052801561175d57816020015b61174a60405180608001604052806000815260200160008152602001600063ffffffff168152602001600081525090565b8152602001906001900390816117195790505b50905060005b828110156117e15733600090815260696020908152604080832084845260019081018352928190208151608081018352815481529381015492840192909252600282015463ffffffff169083015260030154606082015282518390839081106117ce576117ce6139a1565b6020908102919091010152600101611763565b5092915050565b6117f061327d565b60665460ff1615611883576040517f08c379a000000000000000000000000000000000000000000000000000000000815260206004820152602960248201527f506c65617365207761697420756e74696c20746865207374616b696e6720697360448201527f20756e70617573656400000000000000000000000000000000000000000000006064820152608401610727565b33600081815260696020526040812090805b82548210156119795773ffffffffffffffffffffffffffffffffffffffff841660009081526069602052604081206118eb906118d190856132f0565b600085815260018088016020526040909120015490613550565b90506118f78282613550565b6000848152600186810160205260408220908101919091556002810180547fffffffffffffffffffffffffffffffffffffffffffffffffffffffff00000000164263ffffffff9081169190911790915590549193506119599190839061355016565b600084815260018681016020526040909120919091559092019150611895565b6040805173ffffffffffffffffffffffffffffffffffffffff86168152602081018390524263ffffffff168183015290517fab870f0e51e18faeefcecf6ad2ab62f3ae4c9dd3d81b2e49b8c24cf468b3e34b9181900360600190a150505050610a436001606555565b6119ea61327d565b60665460ff1615611a7d576040517f08c379a000000000000000000000000000000000000000000000000000000000815260206004820152602960248201527f506c65617365207761697420756e74696c20746865207374616b696e6720697360448201527f20756e70617573656400000000000000000000000000000000000000000000006064820152608401610727565b3382611ae5576040517f08c379a000000000000000000000000000000000000000000000000000000000815260206004820152600e60248201527f696e76616c696420616d6f756e740000000000000000000000000000000000006044820152606401610727565b73ffffffffffffffffffffffffffffffffffffffff81166000908152606960205260409020611b5690611b1890846132f0565b73ffffffffffffffffffffffffffffffffffffffff831660009081526069602090815260408083208784526001908101909252909120015490613550565b73ffffffffffffffffffffffffffffffffffffffff82166000908152606960209081526040808320868452600190810190925290912001819055831115611bf9576040517f08c379a000000000000000000000000000000000000000000000000000000000815260206004820152601d60248201527f496e73756666696369656e74207265776172647320746f20636c61696d0000006044820152606401610727565b73ffffffffffffffffffffffffffffffffffffffff8116600090815260696020908152604080832085845260019081019092529091200154611c3b908461355c565b73ffffffffffffffffffffffffffffffffffffffff828116600090815260696020908152604080832087845260019081019092529182902090810193909355600290920180547fffffffffffffffffffffffffffffffffffffffffffffffffffffffff00000000164263ffffffff16179055606b5482517fa32d2440000000000000000000000000000000000000000000000000000000008152600481018790526024810193909352600d60448401527f434c41494d2052455741524453000000000000000000000000000000000000006064840152169063a32d244090608401600060405180830381600087803b158015611d3657600080fd5b505af1158015611d4a573d6000803e3d6000fd5b5050505082471015611db8576040517f08c379a000000000000000000000000000000000000000000000000000000000815260206004820152601d60248201527f436f6e747261637420696e73756666696369656e742062616c616e63650000006044820152606401610727565b73ffffffffffffffffffffffffffffffffffffffff8116600081815260696020908152604080832086845260019081018352928190209092015482518781524263ffffffff1692810192909252818301869052606082015290517fef4371d1c51361711b64fc2d1439fcf40f092cf5d9cd350fee214c46bd4493349181900360800190a260008173ffffffffffffffffffffffffffffffffffffffff168460405160006040518083038185875af1925050503d8060008114611e96576040519150601f19603f3d011682016040523d82523d6000602084013e611e9b565b606091505b5050905080611f2c576040517f08c379a000000000000000000000000000000000000000000000000000000000815260206004820152603360248201527f556e61626c6520746f2073656e642076616c7565206f7220726563697069656e60448201527f74206d61792068617665207265766572746564000000000000000000000000006064820152608401610727565b5050611f386001606555565b5050565b611f446131fc565b610a436000613568565b611f5661327d565b611f5e6131fc565b81471015611fc8576040517f08c379a000000000000000000000000000000000000000000000000000000000815260206004820152601d60248201527f436f6e747261637420696e73756666696369656e742062616c616e63650000006044820152606401610727565b60008211612032576040517f08c379a000000000000000000000000000000000000000000000000000000000815260206004820152600e60248201527f696e76616c696420616d6f756e740000000000000000000000000000000000006044820152606401610727565b73ffffffffffffffffffffffffffffffffffffffff81166120af576040517f08c379a000000000000000000000000000000000000000000000000000000000815260206004820152600f60248201527f696e76616c6964206164647265737300000000000000000000000000000000006044820152606401610727565b6040805183815273ffffffffffffffffffffffffffffffffffffffff831660208201524263ffffffff168183015290517fb5a07b1f4bc2f4ff306ef2ad16fb57d1a54b12930178ff22caa5169642b8ef419181900360600190a160008173ffffffffffffffffffffffffffffffffffffffff168360405160006040518083038185875af1925050503d8060008114612163576040519150601f19603f3d011682016040523d82523d6000602084013e612168565b606091505b50509050806121f9576040517f08c379a000000000000000000000000000000000000000000000000000000000815260206004820152603360248201527f556e61626c6520746f2073656e642076616c7565206f7220726563697069656e60448201527f74206d61792068617665207265766572746564000000000000000000000000006064820152608401610727565b50611f386001606555565b61220c61327d565b60665460ff161561229f576040517f08c379a000000000000000000000000000000000000000000000000000000000815260206004820152602960248201527f506c65617365207761697420756e74696c20746865207374616b696e6720697360448201527f20756e70617573656400000000000000000000000000000000000000000000006064820152608401610727565b81600003612309576040517f08c379a000000000000000000000000000000000000000000000000000000000815260206004820181905260248201527f696e76616c696420756e7374616b6520616d6f756e74207370656369666965646044820152606401610727565b336000818152606960209081526040808320858452600101909152902054831115612390576040517f08c379a000000000000000000000000000000000000000000000000000000000815260206004820152601a60248201527f496e73756666696369656e74207374616b656420616d6f756e740000000000006044820152606401610727565b73ffffffffffffffffffffffffffffffffffffffff811660009081526069602052604081206123bf90846132f0565b73ffffffffffffffffffffffffffffffffffffffff8316600090815260696020908152604080832087845260010190915281205491925090612401908661355c565b73ffffffffffffffffffffffffffffffffffffffff848116600090815260696020908152604080832089845260019081019092528083208581556002810180547fffffffffffffffffffffffffffffffffffffffffffffffffffffffff00000000164263ffffffff1617905590910191909155606b5481517fa32d2440000000000000000000000000000000000000000000000000000000008152600481018790526024810192909252600760448301527f554e5354414b4500000000000000000000000000000000000000000000000000606483015292935091169063a32d244090608401600060405180830381600087803b15801561250157600080fd5b505af1158015612515573d6000803e3d6000fd5b5050505081856125259190613914565b47101561258e576040517f08c379a000000000000000000000000000000000000000000000000000000000815260206004820152601d60248201527f436f6e747261637420696e73756666696369656e742062616c616e63650000006044820152606401610727565b6040805186815263ffffffff421660208201529081018590526060810183905273ffffffffffffffffffffffffffffffffffffffff8416907f51804bb2b3da65274a49967fe77f4fd4c1b4241593ac270162ca058ac640e8fc9060800160405180910390a2600073ffffffffffffffffffffffffffffffffffffffff84166126168488613914565b604051600081818185875af1925050503d8060008114612652576040519150601f19603f3d011682016040523d82523d6000602084013e612657565b606091505b50509050806126e8576040517f08c379a000000000000000000000000000000000000000000000000000000000815260206004820152603360248201527f556e61626c6520746f2073656e642076616c7565206f7220726563697069656e60448201527f74206d61792068617665207265766572746564000000000000000000000000006064820152608401610727565b50505050611f386001606555565b336000908152606960205260408120815b815481101561273557600081815260018301602052604090205461272b9084613914565b9250600101612707565b505090565b61274261327d565b60665460ff16156127d5576040517f08c379a000000000000000000000000000000000000000000000000000000000815260206004820152602960248201527f506c65617365207761697420756e74696c20746865207374616b696e6720697360448201527f20756e70617573656400000000000000000000000000000000000000000000006064820152608401610727565b3360008181526069602052604090206127f290611b1890846132f0565b73ffffffffffffffffffffffffffffffffffffffff82166000908152606960209081526040808320868452600190810190925290912001819055831115612895576040517f08c379a000000000000000000000000000000000000000000000000000000000815260206004820152601f60248201527f496e73756666696369656e74207265776172647320746f2072657374616b65006044820152606401610727565b73ffffffffffffffffffffffffffffffffffffffff811660009081526069602090815260408083208584526001019091528120546128d39085613550565b73ffffffffffffffffffffffffffffffffffffffff8316600090815260696020908152604080832087845260019081019092529091208281556002810180547fffffffffffffffffffffffffffffffffffffffffffffffffffffffff00000000164263ffffffff908116919091179091559101549192506129579190869061355c16565b73ffffffffffffffffffffffffffffffffffffffff831660008181526069602090815260408083208884526001908101835292819020909201849055815188815263ffffffff4216918101919091529081018690526060810192909252907ff0a5ef65bc0c4bbcb78c74184316d28baa113174b9d06f4a2574a1a81509af2e9060800160405180910390a25050611f386001606555565b6129f661327d565b60665460ff1615612a89576040517f08c379a000000000000000000000000000000000000000000000000000000000815260206004820152602960248201527f506c65617365207761697420756e74696c20746865207374616b696e6720697360448201527f20756e70617573656400000000000000000000000000000000000000000000006064820152608401610727565b336000612a94613054565b905080831115612b26576040517f08c379a000000000000000000000000000000000000000000000000000000000815260206004820152602660248201527f696e76616c696420616d6f756e742073706563696669656420666f722072657360448201527f74616b696e6700000000000000000000000000000000000000000000000000006064820152608401610727565b73ffffffffffffffffffffffffffffffffffffffff82166000908152606960205260408120905b8154811015612cc25773ffffffffffffffffffffffffffffffffffffffff84166000908152606960205260408120612ba390612b8990846132f0565b600084815260018087016020526040909120015490613550565b60008381526001858101602052604090912090810182905560020180547fffffffffffffffffffffffffffffffffffffffffffffffffffffffff00000000164263ffffffff16179055905085811115612c79576000828152600184016020526040902054612c119087613550565b60008381526001808601602090815260408084209490945573ffffffffffffffffffffffffffffffffffffffff8916835260698152838320868452820190529190200154612c5f908761355c565b600083815260018086016020526040909120015550612cc2565b6000828152600184016020526040902054612c949082613550565b60008381526001808601602052604082209283559190910155612cb7868261355c565b955050600101612b4d565b600081815260018084016020526040918290200154905173ffffffffffffffffffffffffffffffffffffffff8616917ff0a5ef65bc0c4bbcb78c74184316d28baa113174b9d06f4a2574a1a81509af2e91612d3e9189914291879193845263ffffffff9290921660208401526040830152606082015260800190565b60405180910390a25050505061107c6001606555565b600054610100900460ff1615808015612d745750600054600160ff909116105b80612d8e5750303b158015612d8e575060005460ff166001145b612e1a576040517f08c379a000000000000000000000000000000000000000000000000000000000815260206004820152602e60248201527f496e697469616c697a61626c653a20636f6e747261637420697320616c72656160448201527f647920696e697469616c697a65640000000000000000000000000000000000006064820152608401610727565b600080547fffffffffffffffffffffffffffffffffffffffffffffffffffffffffffffff001660011790558015612e7857600080547fffffffffffffffffffffffffffffffffffffffffffffffffffffffffffff00ff166101001790555b6040805180820190915261ffff808816825263ffffffff42811660208401908152606a805460018101825560009190915293517f116fea137db6e131133e7f2bab296045d8f41cc5607279db17b218cab0929a519094018054915190921662010000027fffffffffffffffffffffffffffffffffffffffffffffffffffff000000000000909116939092169290921717905560678590556068849055606b805473ffffffffffffffffffffffffffffffffffffffff85167fffffffffffffffffffffffff0000000000000000000000000000000000000000909116179055612f5e6135df565b612f67826130c7565b8015612fca57600080547fffffffffffffffffffffffffffffffffffffffffffffffffffffffffffff00ff169055604051600181527f7f26b83ff96e1f2b6a682f133852f6798a09c465da95921460cefb38474024989060200160405180910390a15b505050505050565b612fda6131fc565b606680547fffffffffffffffffffffffffffffffffffffffffffffffffffffffffffffff0016911515919091179055565b33600081815260696020818152604080842086855260018082018452918520909101549484529190529091829161304d919061304790866132f0565b90613550565b9392505050565b336000908152606960205260408120548190815b8181101561308d576130798161300b565b6130839084613914565b9250600101613068565b509092915050565b606a81815481106130a557600080fd5b60009182526020909120015461ffff8116915062010000900463ffffffff1682565b6130cf6131fc565b73ffffffffffffffffffffffffffffffffffffffff8116613172576040517f08c379a000000000000000000000000000000000000000000000000000000000815260206004820152602660248201527f4f776e61626c653a206e6577206f776e657220697320746865207a65726f206160448201527f64647265737300000000000000000000000000000000000000000000000000006064820152608401610727565b61107c81613568565b6131836131fc565b60688190556040805182815263ffffffff421660208201527f3a99a5d68ef44398d05e5cca16bfeac8117edf32a7f267449172a9495422b87f9101610685565b606a8054600091906131d79060019061395f565b815481106131e7576131e76139a1565b60009182526020909120015461ffff16919050565b60335473ffffffffffffffffffffffffffffffffffffffff163314610a43576040517f08c379a000000000000000000000000000000000000000000000000000000000815260206004820181905260248201527f4f776e61626c653a2063616c6c6572206973206e6f7420746865206f776e65726044820152606401610727565b6002606554036132e9576040517f08c379a000000000000000000000000000000000000000000000000000000000815260206004820152601f60248201527f5265656e7472616e637947756172643a207265656e7472616e742063616c6c006044820152606401610727565b6002606555565b600081815260018084016020526040822060028101549054606a548493849363ffffffff169291908111156135115760005b8181101561336f57606a818154811061333d5761333d6139a1565b60009182526020909120015463ffffffff620100009091048116908516116133675780955061336f565b600101613322565b50846000036133ed57606854613387906127106139d0565b6133d761339a63ffffffff86164261395f565b6133d1606a6133aa60018761395f565b815481106133ba576133ba6139a1565b600091825260209091200154869061ffff1661367e565b9061367e565b6133e191906139e7565b9550505050505061354a565b845b818110156134cd57600060685461271061340991906139d0565b61347f86606a8581548110613420576134206139a1565b600091825260209091200154613442919062010000900463ffffffff16613a22565b63ffffffff166133d1606a61345860018861395f565b81548110613468576134686139a1565b600091825260209091200154889061ffff1661367e565b61348991906139e7565b90506134958187613914565b9550606a82815481106134aa576134aa6139a1565b60009182526020909120015462010000900463ffffffff169450506001016133ef565b506068546134dd906127106139d0565b6134f061339a63ffffffff86164261395f565b6134fa91906139e7565b6135049085613914565b955061354a945050505050565b606854613520906127106139d0565b6133d761353363ffffffff86164261395f565b6133d1606a6000815481106133ba576133ba6139a1565b92915050565b600061304d8284613914565b600061304d828461395f565b6033805473ffffffffffffffffffffffffffffffffffffffff8381167fffffffffffffffffffffffff0000000000000000000000000000000000000000831681179093556040519116919082907f8be0079c531659141344cd1fd0a4f28419497f9722a3daafe3b4186f6b6457e090600090a35050565b600054610100900460ff16613676576040517f08c379a000000000000000000000000000000000000000000000000000000000815260206004820152602b60248201527f496e697469616c697a61626c653a20636f6e7472616374206973206e6f74206960448201527f6e697469616c697a696e670000000000000000000000000000000000000000006064820152608401610727565b610a4361368a565b600061304d82846139d0565b600054610100900460ff16613721576040517f08c379a000000000000000000000000000000000000000000000000000000000815260206004820152602b60248201527f496e697469616c697a61626c653a20636f6e7472616374206973206e6f74206960448201527f6e697469616c697a696e670000000000000000000000000000000000000000006064820152608401610727565b610a4333613568565b803573ffffffffffffffffffffffffffffffffffffffff8116811461374e57600080fd5b919050565b60006020828403121561376557600080fd5b61304d8261372a565b60006020828403121561378057600080fd5b5035919050565b803561ffff8116811461374e57600080fd5b6000602082840312156137ab57600080fd5b61304d82613787565b602080825282518282018190526000919060409081850190868401855b828110156138115781518051855286810151878601528581015163ffffffff168686015260609081015190850152608090930192908501906001016137d1565b5091979650505050505050565b6000806040838503121561383157600080fd5b50508035926020909101359150565b6000806040838503121561385357600080fd5b823591506138636020840161372a565b90509250929050565b600080600080600060a0868803121561388457600080fd5b61388d86613787565b945060208601359350604086013592506138a96060870161372a565b91506138b76080870161372a565b90509295509295909350565b6000602082840312156138d557600080fd5b8135801515811461304d57600080fd5b7f4e487b7100000000000000000000000000000000000000000000000000000000600052601160045260246000fd5b8082018082111561354a5761354a6138e5565b60007fffffffffffffffffffffffffffffffffffffffffffffffffffffffffffffffff8203613958576139586138e5565b5060010190565b8181038181111561354a5761354a6138e5565b7f4e487b7100000000000000000000000000000000000000000000000000000000600052604160045260246000fd5b7f4e487b7100000000000000000000000000000000000000000000000000000000600052603260045260246000fd5b808202811582820484141761354a5761354a6138e5565b600082613a1d577f4e487b7100000000000000000000000000000000000000000000000000000000600052601260045260246000fd5b500490565b63ffffffff8281168282160390808211156117e1576117e16138e556fea26469706673582212207ec31561ef2d00dcb244573b924f31c72780ab86525cf5011422e9474846680464736f6c63430008170033","linkReferences":{}},"methodIdentifiers":{"apy(uint256)":"e75ac809","claimAllRewards()":"0b83a727","claimRewards(uint256,uint256)":"594dd432","frequency()":"ead50da3","getCurrentApy()":"f4925de5","getTotalRewards()":"e627f2db","getUserRewards(uint256)":"e1a9a6dd","getUserStake(uint256)":"a9d48b43","getUserStakesInfo()":"3ddfa45c","getUserTotalStakes()":"acf3500a","initialize(uint16,uint256,uint256,address,address)":"bf23f103","liquidityPool()":"665a11ca","migration(uint256,address)":"8c6f3349","minimumStake()":"ec5ffac2","owner()":"8da5cb5b","pause()":"8456cb59","renounceOwnership()":"715018a6","restake(uint256)":"bce1b520","restake(uint256,uint256)":"b8e7023d","restakeAll()":"3e19e8c1","setAPY(uint16)":"24b3f698","setFrequency(uint256)":"f426f03a","setLiquidityPool(address)":"01877020","setMinimumStake(uint256)":"233e9903","stake()":"3a4b66f1","stakes(address)":"16934fc4","transferOwnership(address)":"f2fde38b","unstake(uint256)":"2e17de78","unstake(uint256,uint256)":"9e2c8a5b","unstakeAll()":"35322f37","updateStakingPause(bool)":"df2982de"},"id":8}